:020000040800F2
:1000000000500020190200088B0800088D08000825
:100010008F080008910800089308000800000000FD
:10002000000000000000000000000000950800082B
:100030009708000800000000990800089D1C0008AF
:100040004503000845030008450300084503000870
:100050004503000845030008450300084503000860
:100060004503000845030008450300084503000850
:100070004503000845030008450300084503000840
:100080004503000845030008450300084503000830
:10009000450300089D0800084503000845030008C3
:1000A0004503000845030008450300084503000810
:1000B0004503000845030008450300084503000800
:1000C00045030008450300084503000845030008F0
:1000D00045030008450300084503000845030008E0
:1000E0004503000845030008450300080000000020
:1000F0000000000000000000000000000000000000
:100100004503000800B583B000F09CFF304B314A36
:100110001360314A1360314B314A03E052F8041B3B
:1001200043F8041B2F498B42F8D32A4B1A682E4BF5
:100130009A4200D0FEE7284B1A682C4B9A42F9D11C
:10014000234B2B4A13602B4A13602B4B02E00022F7
:1001500043F8042B294A9342F9D3254B1B6813B962
:10016000244B1B6803B1FEE700F078FF694601A845
:1001700000F022F9224C234BE41AA410002504E0DD
:10018000204B53F8253098470135AC42F8DC1E4C23
:100190001E4BE41AA410002504E01C4B53F8253034
:1001A00098470135AC42F8DC0099019801F0DCFC7D
:1001B0000546174C174BE41AA41004E0013C154BFC
:1001C00053F824309847002CF8DC284600F0D0F88B
:1001D000BABADECA000000207C0000200000002027
:1001E000B0260008800000207856341232547698E9
:1001F00080000020F801002080000020FC01002089
:100200007003000870030008700300087003000802
:10021000700300087003000808B5FFF773FF00BE05
:10022000FEE71EF0040F0CBFEFF30880EFF3098028
:100230007146414A10472DE9F04182B00446884694
:10024000124B5E6B9F6B9D6A1B6B13F0020F03D00A
:100250000E4BDB6A002B0CDB0D4800F04FFECDF897
:1002600000803B4632462946204600F061FE00BE33
:10027000FEE74BF6AB6100F0D5FE0028ECD0034B57
:100280004FF00042DA6202B0BDE8F08100ED00E01C
:100290005026000800BEFEE71EF0040F0CBFEFF36F
:1002A0000880EFF309807146244A10472DE9F04198
:1002B00082B004468846084B5E6B9F6B9D6A074878
:1002C00000F01CFECDF800803B4632462946204611
:1002D00000F02EFE00BEFEE700ED00E06026000804
:1002E0001EF0040F0CBFEFF30880EFF30980714696
:1002F000134A10472DE9F04182B004468846084B66
:100300005E6B9F6B9D6A074800F0F8FDCDF800809A
:100310003B4632462946204600F00AFE00BEFEE774
:1003200000ED00E06C26000800BEFEE700BEFEE720
:1003300000BEFEE77047000037020008AD0200086B
:06034000F5020008FEE7D3
:10034800B02600080000002080000020B026000829
:10035800000000100000001080000020FC010020B8
:0803680000000010000000106D
:10037000FEE7000008B503460C4A12685AB10B4A62
:100380001068033323F003030344094A934206D859
:10039000064A136008BD054A06491160EFE701F0FF
:1003A00081FC0C2303604FF0FF30F3E78400002052
:1003B000004C0020FC01002001230360014B0B6076
:1003C000704700BF0400002008B5064B984200D0DB
:1003D00008BD40F2194000F003FB40F2194000F064
:1003E0000DFBF5E700640040032843D8DFE800F088
:1003F00002122D4000234B71CB718B7140F2FF3202
:100400004A810B724B7002228A70CB700B714B7257
:100410000B7070470123CB8100230B740B810B8081
:100420004B808B80CB808B814B817047CA1800201A
:10043000D0720133DBB2072BF8D900238B724B60EB
:1004400004220A724B720B6070470023F3E7CA184C
:100450000020D0720133DBB2072BF8D900238B7256
:100460004B6004220A7281F84B304B720B6070476C
:100470000023F1E7FEE710B4036823F002030360F2
:10048000036843F0010303604FF6FF73041D4268E5
:1004900012F0010F02D10BB1013BF7E7236813F013
:1004A000010F6ED00A784B781B0603F0407343EAC5
:1004B00082738A78120402F470221343CA781205F8
:1004C00002F4E00213434A89013AC2F309021343DA
:1004D000C3610B79012B33D0036823F080030360E1
:1004E0004B79012B31D0036823F0400303608B79F3
:1004F000012B2FD0036823F020030360CB79012B5D
:100500002DD0036843F0100303600B7A012B2BD02E
:10051000036843F0080303604B7A012B29D003687A
:1005200023F004030360036823F0010303604FF624
:10053000FF73226812F0010F20D0FBB1013BF8E7F6
:10054000036843F080030360CAE7036843F0400395
:100550000360CCE7036843F020030360CEE7036841
:1005600023F010030360D0E7036823F0080303605F
:10057000D2E7036843F004030360D4E723B9002003
:1005800000E0002010BC70470120FBE730B4438935
:10059000012202FA03F335490A6842F001020A60B7
:1005A000334C2168DA4311402160C189C9B9103C3C
:1005B000216811402160C5884488418901F10061AA
:1005C00001F6C841C90044EA05440C6085880488E6
:1005D000418901F1006101F6C841C90044EA0544BE
:1005E0004C60C189012917D0818900292FD1214C64
:1005F000216811402160018900292DD11E490C6814
:1006000022400A60027C012A2BD0184A136823F08A
:100610000103136030BC7047184C216819432160F6
:1006200005884488418901F1006101F6C841C9008B
:1006300044EA05440C608588C488418901F1006161
:1006400001F6C841C90044EA05444C60CCE7094CB6
:10065000216819432160CEE707490A681A430A60F6
:10066000D0E703490A6813430B60CEE700660040F9
:100670001C66004004660040146600400C660040A2
:1006800030B4836813F0806F09D1836813F0006F72
:1006900047D1836813F0805F50D0022400E000242B
:1006A00000EB0413D3F8802102F00102C3F880218B
:1006B0000A7A002A37D1D3F880210D68487A40EAB7
:1006C00045500243C3F88021D3F8842122F00F0261
:1006D000C3F88421D3F88421887A0243C3F88421A3
:1006E000887B4A7B120442EA0062087B42EA0022CD
:1006F000C87A0243C3F88821887C4A7C120442EA03
:100700000062087C42EA0022C97B0A43C3F88C21BC
:10071000D3F8802142F00102C3F88021204630BC8A
:1007200070470124BCE7D3F880014D6842EAC50256
:100730004D7A2A430243C3F88021C5E70324EDE73D
:1007400010B400EB0113D3F8B04104F004041472A8
:10075000002C3CD1D3F8B041640D1460D3F8B04103
:1007600004F002045472D3F8B441C4F3072482F8AD
:100770004B40D3F8B44104F00F049472D3F8B8415D
:10078000D472D3F8B841C4F307241473D3F8B84132
:10079000C4F307445473D3F8B841240E9473D3F8C8
:1007A000BC41D473D3F8BC41C4F307241474D3F808
:1007B000BC41C4F307445474D3F8BC311B0E93748A
:1007C00051B9C36843F02003C36010BC7047D3F82D
:1007D000B041E4085460C1E7036943F020030361BA
:1007E000F3E7436919434161704708B54FF440701E
:1007F00000F0F6F84FF4407000F000F908BDF0B4D6
:1008000001F00F0611F0100F00D01643002203E094
:1008100044610560013292B2072A14D80124944041
:100820001C40F7D0076895004FF00F0C0CFA05FC40
:1008300027EA0C0706FA05F53D432829E8D04829A0
:10084000E7D10461E5E7082203E044614560013235
:1008500092B20F2A17D8012494401C40F7D0476861
:1008600002F18045083DAD004FF00F0C0CFA05FC7D
:1008700027EA0C0706FA05F53D432829E5D0482963
:10088000E4D10461E2E7F0BC70477047FEE7FEE7A1
:10089000FEE7FEE7704770477047000010B5154C43
:1008A000224601211448FFF74BFF6368134A934225
:1008B00003D002F58072934205D1114A01211170D3
:1008C000104A00211160104A1268934200D010BDF6
:1008D000084B9B6803F0FF130C4A9342F7D1054B7A
:1008E000DB7A03F00F030A4A1360062BEFDC094A98
:1008F0001360ECE7980100200064004010A1FF188D
:10090000E40100202C010020100000200400010060
:100910001C0100204401002040F0BF6040F4003082
:10092000014BD860704700BF00ED00E070B5054690
:100930000E461446214BDA6802F4E062B2F5A06F6D
:1009400032D008D9B2F5C06F34D0B2F5E06F24D1FF
:100950000422002307E0B2F5407F28D0B2F5806F73
:100960001BD101220323C3F1040306FA03F1C2F1F0
:1009700004020F2323FA02F204EA02030B431B01D1
:10098000DBB20F4A511981F8003305F01F016D09E0
:1009900001238B4042F8253070BD4FF4A060FFF773
:1009A000BBFF02221346DEE702221346DBE70022EA
:1009B0000423D8E703220123D5E700BF00ED00E0C0
:1009C00000E100E0830903F1804303F504331A6872
:1009D00000F01F00012101FA00F002431A60704785
:1009E000830903F1804303F504331A6800F01F0004
:1009F000012101FA00F002431A607047830903F1F4
:100A0000804303F504331A6800F01F00012101FA46
:100A100000F022EA00021A607047000008B5334B6C
:100A2000984251D013D9324B984256D01BD9314BF2
:100A3000984225D003F50063984213D140F20D305F
:100A4000FFF7CEFF40F20D30FFF7D8FF0AE0A3F525
:100A50000063984226D003F5806398422BD0B0F112
:100A6000804F16D008BDA3F580639842FAD140F2BA
:100A70000440FFF7B5FF40F20440FFF7BFFFF1E786
:100A800040F20B30FFF7ACFF40F20B30FFF7B6FF40
:100A9000E8E74FF48060FFF7A3FF4FF48060FFF7B3
:100AA000ADFFDFE740F20140FFF79AFF40F201405F
:100AB000FFF7A4FFD6E740F20240FFF791FF40F2B4
:100AC0000240FFF79BFFCDE740F20340FFF788FFAE
:100AD00040F20340FFF792FFC4E740F20540FFF702
:100AE0007FFF40F20540FFF789FFBBE7000C0040A5
:100AF00000140040002C01400B8883622F4B984269
:100B00002AD0B0F1804F27D0A3F59433984223D058
:100B100003F5806398421FD003F5806398421BD091
:100B200003F59433984217D003F5C053984213D07D
:100B300003F5806398420FD003F5806398420BD091
:100B4000A3F59E33984207D003F58063984203D003
:100B500003F5806398420FD1036823F070030360AC
:100B600003684A8802F060021343036003688A88BE
:100B700002F01002134303608B68C362104B98426B
:100B80000DD003F58063984209D0036823F44073C5
:100B9000036003688A8902F4407213430360074BC1
:100BA000984203D003F50063984201D18B7B036325
:100BB000436943F001034361704700BF002C0140CB
:100BC00000100040036843F00103036070470368AE
:100BD00043F0800303607047012904D0436C23F481
:100BE000004343647047436C43F4004343647047DD
:100BF000032900F2EE80DFE811F0040041008400D8
:100C0000C600036A23F001030362836923F0030330
:100C10008361036A11880B430362036A23F00203B2
:100C20000362036A91880B4303626A4B984204D0C3
:100C300003F50063984240F0CC80036A23F004037C
:100C40000362036A51880B430362036A23F00803BB
:100C50000362036AD1880B430362436823F4807301
:100C60004360436811890B434360436823F4007376
:100C7000436043685289134343607047036A23F01B
:100C800010030362836923F440738361036A11884C
:100C900043EA01130362036A23F020030362036A39
:100CA000918843EA011303624A4B984204D003F54A
:100CB0000063984240F08D80036A23F04003036292
:100CC000036A518843EA01130362036A23F0800335
:100CD0000362036AD18843EA01130362436823F481
:100CE000806343604368118943EA8103436043683A
:100CF00023F4006343604368528943EA82034360FC
:100D00007047036A23F480730362C36923F003030B
:100D1000C361036A118843EA01230362036A23F46F
:100D200000730362036A918843EA01230362294B3B
:100D3000984203D003F5006398424AD1036A23F432
:100D400080630362036A518843EA01230362036AF2
:100D500023F400630362036AD18843EA0123036238
:100D6000436823F4805343604368118943EA0113C5
:100D70004360436823F4005343604368528943EA65
:100D8000021343607047036A23F480530362C3690C
:100D900023F44073C361036A118843EA0133036299
:100DA000036A23F400530362036A918843EA013320
:100DB0000362084B984203D003F50063984208D1C0
:100DC000436823F4804343604368128943EA8213F3
:100DD00043607047002C0140032924D8DFE801F06C
:100DE000020A131B836923F07003836183691A432A
:100DF00082617047836923F4E0438361836943EA36
:100E0000022282617047C36923F07003C361C36922
:100E10001A43C2617047C36923F4E043C361C369E5
:100E200043EA0222C261704703290AD8DFE801F0D1
:100E3000020406084263704782637047C2637047CA
:100E400002647047032924D8DFE801F0020A131B6B
:100E5000836923F00803836183691A4382617047C1
:100E6000836923F400638361836943EA0222826118
:100E70007047C36923F00803C361C3691A43C261A1
:100E80007047C36923F40063C361C36943EA022264
:100E9000C26170472DE9F04385B004460F464356C2
:100EA00033BB042528462146ABBE0446384605B070
:100EB000BDE8F08304AA1344002203F8102C4FF07D
:100EC0000408E94640464946ABBE8046761B002EE4
:100ED000ECD03546102E28BF10250023AB42E9D2B6
:100EE00014F9011B04AA1A4402F8101C0133F5E797
:100EF0000E46ECE708B5FFF7CDFF08BD0FB400B50F
:100F000083B004AB53F8042B01938021074800F011
:100F100009FF002804DC03B05DF804EB04B070475F
:100F200001460248FFF7E6FFF5E700BF8C0000200E
:100F3000F8B504460D4617461E462748FFF7DEFF64
:100F400021682648FFF7DAFF61682548FFF7D6FFDA
:100F5000A1682448FFF7D2FFE1682348FFF7CEFFDE
:100F600021692248FFF7CAFF61692148FFF7C6FFE0
:100F7000A1692048FFF7C2FFE1691F48FFF7BEFFE4
:100F80001E48FFF7BBFF29461D48FFF7B7FF1D4C62
:100F9000E16A1D48FFF7B2FF216B1C48FFF7AEFF67
:100FA000E16B1B48FFF7AAFF15F0800F0AD115F47B
:100FB000004F0CD11748FFF7A1FF06991648FFF71D
:100FC0009DFFF8BD39461548FFF798FFEFE731461A
:100FD0001348FFF793FFEDE7342500084425000888
:100FE000542500086425000874250008842500089D
:100FF00094250008A4250008B4250008C42500088D
:10100000D025000800ED00E0E0250008F0250008EC
:1010100000260008302600083826000810260008A0
:101020002026000883691A888A4201D00020704770
:101030000268033A012A01D9002070470233836114
:101040000120704708B500F061F8024A024B9A602F
:1010500008BD00BF0000000800ED00E008B500F08A
:1010600083F808BD254A136843F4803313600023D6
:101070000133224A126812F4003F03D14FF6FF7287
:101080009342F5D11D4B1B6813F4003F00D1FEE7DE
:101090001B4B1A681A601A681A601A6842F4806258
:1010A0001A601A6822F440321A601A6842F4403218
:1010B0001A601A6822F0036222F440221A601A6849
:1010C00042F0026242F400221A600C4A136843F0B4
:1010D00080731360094B1B6813F0007FFAD0084B34
:1010E0001A6822F003021A601A6842F002021A60BB
:1010F000034B1B6813F0080FFAD070470010024032
:101100000410024008B5FFF7ADFF08BD08B5134B4A
:101110001A6842F001021A6011490868114A024037
:101120000A601A6822F0847222F480321A601A6807
:1011300022F480221A600A6822F00F6222F47022E0
:101140000A601A6822F0847222F480321A6008332E
:101150004FF41F021A60FFF7D5FF08BD00100240D0
:10116000041002400C00FFE81B4B1B68C3F3810313
:10117000012B0AD02BB1022B0BD0184B184A1A6046
:101180007047164B164A1A607047144B144A1A607F
:101190007047114B1B6813F4803F06D00E4B1B6841
:1011A00013F4003F14D10E4A00E00E4A0A490B68BE
:1011B000C3F38343096811F0006F01D043F01003BB
:1011C0000E2B07D9013302FB03F3044A1360704767
:1011D000044AEBE70233F6E7041002400C0000205B
:1011E00000127A0000093D0082B0F0B585B001AD73
:1011F00085E807000AAE46F8043F29460020FFF7BD
:10120000F3F831460120FFF7EFF8224F3846FFF799
:10121000DBF800248DF808408DF809408DF80A406D
:101220008DF80B408DF80C408DF80D408DF8044082
:101230008DF8054004238DF8063002238DF8073021
:101240001823ADF80E3029463846FFF714F9ADF8EB
:101250003640ADF838400123ADF83A304CF2FD721B
:10126000ADF82C208422ADF82E204FF6FF72ADF899
:10127000302048F2FC72ADF83220ADF834308DF8F1
:101280003C303046FFF782F905B0BDE8F04002B0CF
:10129000704700BF0064004008B5002211461520C9
:1012A000FFF744FB08BD000010B5FFF79EFA40F2BF
:1012B0001970FFF787FB40F20260FFF783FB40F2F3
:1012C0000360FFF77FFB4FF4C060FFF77BFB134C1D
:1012D0004FF40063032248212046FFF790FA4FF4B1
:1012E0008053032218212046FFF789FA04F5806411
:1012F0004FF40053032218212046FFF780FA4FF4E1
:101300008043032218212046FFF779FA4FF4004367
:10131000032218212046FFF772FA10BD0008014091
:1013200070B588B040F20B60FFF74CFB364D284695
:10133000FFF774FB6B23ADF804300024ADF80640D2
:10134000ADF8084041F63F730393ADF810408DF8B7
:10135000124001A92846FFF7CFFB0126ADF8146023
:101360000423ADF81630ADF81840ADF81A40ADF8CA
:101370001C40ADF81E4005AA21462846FFF738FC60
:1013800005AA31462846FFF733FC05AA0221284664
:10139000FFF72EFC224621462846FFF745FD602236
:1013A00021462846FFF718FD224621462846FFF72A
:1013B00049FD224631462846FFF736FD6022314678
:1013C0002846FFF709FD224631462846FFF73AFD39
:1013D000224602212846FFF727FD602202212846E7
:1013E000FFF7FAFC224602212846FFF72BFD314683
:1013F0002846FFF7F1FB2846FFF7E9FB2846FFF7F1
:10140000E1FB08B070BD00BF002C014010B5294BB6
:101410001B68012B1CD0022B33D003B110BD264C0E
:10142000002201212046FFF7FFFC00221146204642
:10143000FFF7FAFC002202212046FFF7F5FC4FF4EB
:101440007A7000F017FC1B4A136801331360E5E75C
:10145000194C002201212046FFF7E6FC002211462C
:101460002046FFF7E1FC002202212046FFF7DCFCCA
:101470004FF47A7000F0FEFB0E4A136801331360DC
:10148000CCE70D4C002201212046FFF7CDFC0022C5
:1014900011462046FFF7C8FC002202212046FFF734
:1014A000C3FC4FF47A7000F0E5FB024B00221A6097
:1014B000B4E700BF2C010020002C014038B52A4BB6
:1014C0001B68012B1DD0022B35D003B138BD274D31
:1014D000274C2A8801212046FFF7A6FC002211464E
:1014E0002046FFF7A1FC2A8802212046FFF79CFC3A
:1014F0004FF47A7000F0BEFB1B4A1368013313608F
:10150000E4E71A4D1A4C2A8801212046FFF78CFC8B
:10151000002211462046FFF787FC2A880221204638
:10152000FFF782FC4FF47A7000F0A4FB0E4A1368B8
:1015300001331360CAE70D4D0D4C2A880121204666
:10154000FFF772FC002211462046FFF76DFC2A8847
:1015500002212046FFF768FC4FF47A7000F08AFB06
:10156000014B00221A60B1E72C010020140000207A
:10157000002C014010B52A4B1B68012B1DD0022BFB
:1015800035D003B110BD274C274B1A8801212046C6
:10159000FFF74AFC002211462046FFF745FC0022D7
:1015A00002212046FFF740FC4FF47A7000F062FB06
:1015B0001B4A136801331360E4E71A4C1A4B1A886C
:1015C00001212046FFF730FC002211462046FFF79C
:1015D0002BFC002202212046FFF726FC4FF47A70F4
:1015E00000F048FB0E4A136801331360CAE70D4C44
:1015F0000D4B1A8801212046FFF716FC00221146E8
:101600002046FFF711FC002202212046FFF70CFCC8
:101610004FF47A7000F02EFB014B00221A60B1E704
:101620002C010020002C01401400002010B52A4B92
:101630001B68012B1DD0022B35D003B110BD274CE8
:10164000002201212046FFF7EFFB00221146204631
:10165000FFF7EAFB224B1A8802212046FFF7E4FB42
:101660004FF47A7000F006FB1B4A136801331360D5
:10167000E4E71A4C002201212046FFF7D5FB0022A7
:1016800011462046FFF7D0FB154B1A880221204651
:10169000FFF7CAFB4FF47A7000F0ECFA0E4A1368B9
:1016A00001331360CAE70D4C002201212046FFF7E9
:1016B000BBFB002211462046FFF7B6FB084B1A88F9
:1016C00002212046FFF7B0FB4FF47A7000F0D2FA07
:1016D000014B00221A60B1E72C010020002C0140D0
:1016E0001400002038B5684B1B68012B35D0022B45
:1016F00056D003B138BD654C002201212046FFF7CA
:1017000093FB002211462046FFF78EFB00220221A8
:101710002046FFF789FB5E4D2A8801212046FFF70E
:1017200083FB2A8802212046FFF77EFB4FF4C87016
:1017300000F0A0FA002201212046FFF775FB0022ED
:1017400002212046FFF770FB4FF4167000F092FA6A
:101750004D4A136801331360CCE74D4D4B4C2A883A
:1017600001212046FFF760FB2A8802212046FFF76F
:101770005BFB4FF4C87000F07DFA00220121204687
:10178000FFF752FB002202212046FFF74DFB4FF4EA
:10179000167000F06FFA3C4A136801331360A9E732
:1017A0003B4D3A4C2A8801212046FFF73DFB2A8811
:1017B00000212046FFF738FB2A8802212046FFF748
:1017C00033FB502000F056FA002201212046FFF79B
:1017D0002BFB002211462046FFF726FB00220221A8
:1017E0002046FFF721FB502000F044FA2A8801210F
:1017F0002046FFF719FB2A8800212046FFF714FB3B
:101800002A8802212046FFF70FFB502000F032FA11
:10181000002201212046FFF707FB00221146204647
:10182000FFF702FB002202212046FFF7FDFA5020BD
:1018300000F020FA2A8801212046FFF7F5FA2A88CD
:1018400000212046FFF7F0FA2A8802212046FFF700
:10185000EBFA502000F00EFA002201212046FFF79B
:10186000E3FA002211462046FFF7DEFA00220221A9
:101870002046FFF7D9FA4FF4167000F0FBF9024B3F
:1018800000221A6036E700BF2C010020002C014026
:101890001400002038B54F4B1B68012B2BD0022BB6
:1018A00042D003B138BD4C4C002201212046FFF745
:1018B000BBFA002211462046FFF7B6FA00220221A9
:1018C0002046FFF7B1FA454B1A8801212046FFF761
:1018D000ABFA4FF4C87000F0CDF900220121204688
:1018E000FFF7A2FA4FF4167000F0C4F9394A1368F2
:1018F00001331360D6E7384C384B1A880121204653
:10190000FFF792FA4FF4C87000F0B4F900220121F9
:101910002046FFF789FA4FF4167000F0ABF92D4A14
:10192000136801331360BDE72C4D2B4C2A8801212D
:101930002046FFF779FA2A8800212046FFF774FA3B
:10194000502000F097F9002201212046FFF76CFAA1
:10195000002211462046FFF767FA502000F08AF96E
:101960002A8801212046FFF75FFA2A8800212046B5
:10197000FFF75AFA502000F07DF90022012120469D
:10198000FFF752FA002211462046FFF74DFA502089
:1019900000F070F92A8801212046FFF745FA2A88CD
:1019A00000212046FFF740FA502000F063F90022A2
:1019B00001212046FFF738FA002211462046FFF7A2
:1019C00033FA4FF4167000F055F9024B00221A60FA
:1019D00068E700BF2C010020002C0140140000200B
:1019E00038B54F4B1B68012B2BD0022B42D003B1D3
:1019F00038BD4C4C002201212046FFF715FA002289
:101A000011462046FFF710FA002202212046FFF778
:101A10000BFA454B1A8802212046FFF705FA4FF4CE
:101A2000C87000F027F9002202212046FFF7FCF9D8
:101A30004FF4167000F01EF9394A13680133136031
:101A4000D6E7384C384B1A8802212046FFF7ECF9CC
:101A50004FF4C87000F00EF9002202212046FFF773
:101A6000E3F94FF4167000F005F92D4A13680133BD
:101A70001360BDE72C4D2B4C2A8800212046FFF730
:101A8000D3F92A8802212046FFF7CEF9502000F032
:101A9000F1F8002211462046FFF7C6F90022022184
:101AA0002046FFF7C1F9502000F0E4F82A88002111
:101AB0002046FFF7B9F92A8802212046FFF7B4F93A
:101AC000502000F0D7F8002211462046FFF7ACF96D
:101AD000002202212046FFF7A7F9502000F0CAF8A3
:101AE0002A8800212046FFF79FF92A8802212046F4
:101AF000FFF79AF9502000F0BDF800221146204669
:101B0000FFF792F9002202212046FFF78DF94FF4EA
:101B1000167000F0AFF8024B00221A6068E700BFB1
:101B20002C010020002C01401400002008B50628DC
:101B300007D8DFE800F004070A0D10131600FFF7BE
:101B400065FC08BDFFF7BAFCFBE7FFF713FDF8E7FC
:101B5000FFF76CFDF5E7FFF7C5FDF2E7FFF79AFE2B
:101B6000EFE7FFF73DFFECE780B584B000F064F8E5
:101B70000025274B1D70274B1D70FFF795FBFFF7C6
:101B80008BFBFFF7CDFB244F244E6B463C4654F8AD
:101B9000040F6168A26807C3A2891A803B68306895
:101BA0007168B268FFF720FB10211D48FEF719FE8F
:101BB0001C4C21460220FEF717FC25601A4B63607F
:101BC0006572042323720223A372E57225731749F9
:101BD0000320FEF709FC0E4B1B78012B07D00D4BA1
:101BE0001B78012BF7D10B4B00221A70F3E7104B37
:101BF0001B6823B10F4B1868FFF798FFEFE70949FF
:101C00000C4B1B68CB720648FEF73AFDF2E700BFAB
:101C1000E401002094010020300100202001002078
:101C200000640040480100201EA8FF189801002011
:101C30002C010020440100200A4B1B680A4AA2FB29
:101C400003239B09013BB3F1807F09D2074A53600C
:101C5000074BF02183F823100023936007231360C0
:101C6000704700BF0C000020D34D621010E000E070
:101C700000ED00E0034B1860024B1B68002BFBD10A
:101C8000704700BFE8010020034B1B681BB1024AEC
:101C90001368013B13607047E801002008B5FFF7A7
:101CA000F3FF08BD014B1868704700BF1800002003
:101CB0000A44914200F1FF3300D1704710B511F88A
:101CC000014B914203F8014FF9D110BD30B5141EFC
:101CD00005469BB0184605DA8B234FF0FF302B608A
:101CE0001BB030BD4FF40273ADF80C300CBF23466F
:101CF00004F1FF33029305934FF6FF7300910491B3
:101D0000ADF80E3002461E9B6946284600F074F876
:101D1000431CBCBF8B232B60002CE1D00022009B16
:101D20001A70DDE707B5009313460A4601460348DB
:101D30000068FFF7CBFF03B05DF804FB180000203C
:101D40002DE9F0478E6882469E420C4691469846A1
:101D500038D8B1F80CC01CF4906F31D06269256896
:101D6000096902EB42026F1A02EBD272013355107D
:101D70003B449D4238BF1D461CF4806F30D029463D
:101D800000F032FB064650B90C234FF0FF30CAF882
:101D90000030A38943F04003A381BDE8F0873A46B1
:101DA0002169FFF785FFA38923F4906343F0800343
:101DB000A38126613E44266046466561ED1BA56011
:101DC000464500D9464632464946206800F0A6FA04
:101DD000A36800209B1BA36023681E442660DCE7E9
:101DE0002A4600F05BFB06460028E2D121695046F6
:101DF00000F0AEFAC8E700002DE9F04F1E468B89CF
:101E00009DB01B0607460D4614460ED50B6963B9F7
:101E1000402100F0E9FA2860286120B90C233B60DA
:101E20004FF0FF30C9E040236B610023099320236A
:101E30008DF8293030234FF0010ADFF898918DF8A2
:101E40002A30039623461E4613F8012B0AB1252A91
:101E5000F9D1B6EB040B0BD05B4622462946384637
:101E6000FFF76EFF013000F0A380099B5B440993EC
:101E70003378002B00F09C8000234FF0FF32CDE937
:101E800005230136049307938DF853301A93344693
:101E9000052214F8011B4F4800F032FA049BC0B928
:101EA000D90644BF20228DF853201A0744BF2B22A5
:101EB0008DF8532032782A2A13D0344600200A267F
:101EC000079A214611F8013B303B092B4BD970B9D9
:101ED00014E0A0EB09000AFA00F01843049026462B
:101EE000D5E7039A111D12680391002A01DB0792BE
:101EF00004E0524243F002030792049323782E2B0E
:101F00000CD163782A2B33D1039B02341A1D1B6832
:101F10000392002BB8BF4FF0FF3305932E4E0322E0
:101F20002178304600F0ECF938B14023801B03FAE9
:101F300000F0049B01340343049314F8011B0622B0
:101F400026488DF8281000F0DBF9002838D0244B03
:101F500013BB039B073323F0070308330393099B49
:101F6000434409936EE706FB023201200C46A8E7C2
:101F700000230A26194601340593204610F8012B48
:101F8000303A092A03D9002BC8D00591C6E706FBD1
:101F9000012101230446F0E703AB00932A46114BCD
:101FA00004A93846AFF30080B0F1FF3F8046D6D198
:101FB000AB895B063FF534AF09981DB0BDE8F08FE3
:101FC00003AB00932A46074B04A9384600F082F879
:101FD000EAE700BF7C260008822600088626000863
:101FE00000000000411D00082DE9F04791461F4602
:101FF0008A680B6906469342B8BF1346C9F8003099
:1020000091F843200C46DDF8208012B10133C9F865
:1020100000302368990642BFD9F800300233C9F86E
:102020000030256815F0060507D104F1190AE368A8
:10203000D9F800209B1AAB4229DC94F8433022687F
:10204000003318BF012392062ED404F1430239460F
:102050003046C047013021D02368E56803F006030D
:10206000042B18BF0025D9F800204FF0000908BF45
:10207000AD1AA368226908BF25EAE5759342C4BF7B
:102080009B1AED181A344D451AD1002008E001239F
:10209000524639463046C047013003D14FF0FF3039
:1020A000BDE8F0870135C2E73020E11881F8430030
:1020B0005A1C94F845102244023382F84310C4E7B6
:1020C0000123224639463046C0470130E6D009F1A7
:1020D0000109D8E72DE9F04306460C4601F143001B
:1020E000097E85B06E29984617460C9B00F0BB8090
:1020F00024D8632939D00AD8002900F0C48058298F
:1021000000F0928004F1420584F8421035E0642921
:1021100001D06929F6D125681A6815F0800F02F1FF
:1021200004012CD012681960002A03DA2D235242D0
:1021300084F84330DFF8C0C10A233FE0732900F080
:10214000A68008D86F2921D07029DBD1226842F0FF
:102150002002226003E0752918D07829D2D1782294
:10216000DFF898C184F8452062E01A6804F142055E
:10217000111D1960136884F84230012394E012683D
:1021800015F0400F196018BF12B2CDE7D4F800C0A7
:102190001A681CF0800F02F104051D6001D012685E
:1021A00003E01CF0400FFAD012886F290CBF0823FF
:1021B0000A23DFF844C1002184F843106568002D2C
:1021C000A8BF2168A560A4BF21F0040121600AB95D
:1021D000002D46D00546B2FBF3F103FB112E1CF88F
:1021E0000EE0934205F801ED39D9082B0BD1236895
:1021F000DA0708D5236962689A42DEBF302305F802
:10220000013C05F1FF35401B2061CDF800803B46C5
:1022100003AA21463046FFF7E7FE013049D14FF0CF
:10222000FF3005B0BDE8F083DFF8CCC084F845107E
:102230001D68216855F8042B1D600D060BD5CD07D0
:1022400044BF41F0200121601AB9236823F0200324
:1022500023601023AFE74B0648BF92B2EFE70A4670
:10226000B9E70546C1E71A68D4F800C0151D6169D1
:102270001CF0800F1D60136801D0196003E01CF092
:10228000400FFAD01980002305462361BDE71A6884
:10229000111D1960156800216268284600F030F8A9
:1022A00008B1401B606063682361002384F84330F9
:1022B000ABE723692A4639463046C0470130AED0E5
:1022C00023689B0713D4E068039B9842B8BF184665
:1022D000A7E701234A4639463046C04701309ED021
:1022E0000135E368039A9B1AAB42F2DCEBE7002569
:1022F00004F11909F5E700BF8D2600089E260008A5
:1023000010B5C9B202449042034601D1002303E054
:102310001C7801308C42F6D1184610BD884210B5A9
:1023200001EB020302D983421C4607D8421E9942A0
:1023300008D011F8014B02F8014FF8E783189A1AF8
:102340009A4200D110BD14F8011D03F8011DF7E7F2
:1023500038B50546002943D051F8043C0C1F002B2A
:10236000B8BFE41800F0D0F81E4A1368104633B91D
:10237000636014602846BDE8384000F0CBB8A34243
:102380000BD921686218934201BF1A685B68521822
:10239000226063600460EDE713465A680AB1A24206
:1023A000FAD919685818A0420BD12068014458186E
:1023B00082421960DED110685268014419605A6087
:1023C000D8E702D90C232B60D4E7206821188A4271
:1023D00001BF116852680918216062605C60C9E73A
:1023E00038BD00BF0C010020F8B5CD1C25F0030559
:1023F00008350C2D38BF0C25002D064601DBA942FF
:1024000003D90C2333600020F8BD00F07DF821498A
:102410000A6814469CB9204F3B6823B921463046D0
:1024200000F062F838602946304600F05DF8431C41
:1024300023D10C233046336000F06CF8E3E72368C7
:102440005B1B17D40B2B03D923601C44256004E0CD
:102450006368A2420CBF0B605360304600F05AF82C
:1024600004F10B00231D20F00700C21ACCD01B1A68
:10247000A350C9E722466468CCE7C41C24F00304D7
:10248000A042E3D0211A304600F02EF80130DDD111
:10249000CFE700BF0C01002010010020F8B507466F
:1024A00014460E4621B91146BDE8F840FFF79CBF1F
:1024B00022B9FFF74DFF25462846F8BD00F030F859
:1024C000A0420FD221463846FFF78EFF054600286E
:1024D000F2D031462246FFF7EBFB31463846FFF794
:1024E00037FFE9E73546E7E738B50023054C0546F1
:1024F00008462360FDF73EFF431C02D1236803B169
:102500002B6038BD14010020014800F011B800BF55
:10251000F0010020014800F00CB800BFF0010020DD
:1025200051F8043C181F002BBCBF0B58C018704753
:1025300070477047537461636B206672616D653AD2
:102540000A000000205230203D2020253038580A53
:1025500000000000205231203D2020253038580A4C
:1025600000000000205232203D2020253038580A3B
:1025700000000000205233203D2020253038580A2A
:102580000000000020523132203D20253038580A0A
:1025900000000000204C52203D2020253038580AF1
:1025A00000000000205043203D2020253038580AEC
:1025B0000000000020505352203D20253038580A9A
:1025C000000000004653522F4641523A0A000000D4
:1025D0002043465352203D2020253038580A000021
:1025E0002048465352203D2020253038580A00000C
:1025F0002044465352203D2020253038580A000000
:102600002041465352203D2020253038580A0000F2
:10261000204D4D464152203D20253038580A0000BB
:102620002042464152203D2020253038580A0000E3
:102630004D6973630A000000204C522F4558435FD8
:1026400052455455524E3D20253038580A0000005E
:102650005B486172644661756C745D0A000000003D
:102660005B4275734661756C745D0A005B557361FE
:1026700067654661756C745D0A000000232D302B80
:102680002000686C4C006566674546470030313273
:1026900033343536373839414243444546003031CA
:0F26A0003233343536373839616263646566002A
:1026B00078563412880000200000000000F36F06F6
:1026C00010A2FF18E80200001C000020000000001B
:1026D00000000000000000000000000000000000FA
:1026E00000000000000000000000000000000000EA
:1026F00000000000000000000000000000000000DA
:1027000000000000000000000000000000000000C9
:1027100000000000000000000000000000000000B9
:102720000000000000000000000000003254769815
:0400000508000105E9
:00000001FF
