:020000040800F2
:100000000050002019020008CB070008CD070008A7
:10001000CF070008D1070008D30700080000000040
:10002000000000000000000000000000D5070008EC
:10003000D707000800000000D90700080D1C0008C1
:100040004503000845030008450300084503000870
:100050004503000845030008450300084503000860
:100060004503000845030008450300084503000850
:100070004503000845030008450300084503000840
:100080004503000845030008450300084503000830
:1000900045030008DD070008450300084503000884
:1000A0004503000845030008450300084503000810
:1000B0004503000845030008450300084503000800
:1000C00045030008450300084503000845030008F0
:1000D00045030008450300084503000845030008E0
:1000E0004503000845030008450300080000000020
:1000F0000000000000000000000000000000000000
:100100004503000800B583B000F046FF304B314A8C
:100110001360314A1360314B314A03E052F8041B3B
:1001200043F8041B2F498B42F8D32A4B1A682E4BF5
:100130009A4200D0FEE7284B1A682C4B9A42F9D11C
:10014000234B2B4A13602B4A13602B4B02E00022F7
:1001500043F8042B294A9342F9D3254B1B6813B962
:10016000244B1B6803B1FEE700F022FF694601A89B
:1001700000F022F9224C234BE41AA410002504E0DD
:10018000204B53F8253098470135AC42F8DC1E4C23
:100190001E4BE41AA410002504E01C4B53F8253034
:1001A00098470135AC42F8DC0099019801F0A2FCB7
:1001B0000546174C174BE41AA41004E0013C154BFC
:1001C00053F824309847002CF8DC284600F0D0F88B
:1001D000BABADECA0000002078000020000000202B
:1001E000202600087C00002078563412325476987D
:1001F0007C000020000200207C000020040200207F
:100200007003000870030008700300087003000802
:10021000700300087003000808B5FFF773FF00BE05
:10022000FEE71EF0040F0CBFEFF30880EFF3098028
:100230007146414A10472DE9F04182B00446884694
:10024000124B5E6B9F6B9D6A1B6B13F0020F03D00A
:100250000E4BDB6A002B0CDB0D4800F0F9FDCDF8EE
:1002600000803B4632462946204600F00BFE00BE89
:10027000FEE74BF6AB6100F07FFE0028ECD0034BAD
:100280004FF00042DA6202B0BDE8F08100ED00E01C
:10029000C025000800BEFEE71EF0040F0CBFEFF300
:1002A0000880EFF309807146244A10472DE9F04198
:1002B00082B004468846084B5E6B9F6B9D6A074878
:1002C00000F0C6FDCDF800803B4632462946204668
:1002D00000F0D8FD00BEFEE700ED00E0D0250008EC
:1002E0001EF0040F0CBFEFF30880EFF30980714696
:1002F000134A10472DE9F04182B004468846084B66
:100300005E6B9F6B9D6A074800F0A2FDCDF80080F0
:100310003B4632462946204600F0B4FD00BEFEE7CB
:1003200000ED00E0DC25000800BEFEE700BEFEE7B1
:1003300000BEFEE77047000037020008AD0200086B
:06034000F5020008FEE7D3
:1003480020260008000000207C000020202600084D
:1003580000000010000000107C00002004020020B3
:0803680000000010000000106D
:10037000FEE7000008B503460C4A12685AB10B4A62
:100380001068033323F003030344094A934206D859
:10039000064A136008BD054A06491160EFE701F0FF
:1003A00039FC0C2303604FF0FF30F3E7800000209E
:1003B000004C00200402002001230360014B0B606D
:1003C000704700BF0400002008B5064B984200D0DB
:1003D00008BD40F2194000F0ADFA40F2194000F0BB
:1003E000B7FAF5E700640040032843D8DFE800F0DF
:1003F00002122D4000234B71CB718B7140F2FF3202
:100400004A810B724B7002228A70CB700B714B7257
:100410000B7070470123CB8100230B740B810B8081
:100420004B808B80CB808B814B817047CA1800201A
:10043000D0720133DBB2072BF8D900238B724B60EB
:1004400004220A724B720B6070470023F3E7CA184C
:100450000020D0720133DBB2072BF8D900238B7256
:100460004B6004220A7281F84B304B720B6070476C
:100470000023F1E7FEE710B4036823F002030360F2
:10048000036843F0010303604FF6FF73041D4268E5
:1004900012F0010F02D10BB1013BF7E7236813F013
:1004A000010F6ED00A784B781B0603F0407343EAC5
:1004B00082738A78120402F470221343CA781205F8
:1004C00002F4E00213434A89013AC2F309021343DA
:1004D000C3610B79012B33D0036823F080030360E1
:1004E0004B79012B31D0036823F0400303608B79F3
:1004F000012B2FD0036823F020030360CB79012B5D
:100500002DD0036843F0100303600B7A012B2BD02E
:10051000036843F0080303604B7A012B29D003687A
:1005200023F004030360036823F0010303604FF624
:10053000FF73226812F0010F20D0FBB1013BF8E7F6
:10054000036843F080030360CAE7036843F0400395
:100550000360CCE7036843F020030360CEE7036841
:1005600023F010030360D0E7036823F0080303605F
:10057000D2E7036843F004030360D4E723B9002003
:1005800000E0002010BC70470120FBE730B4438935
:10059000012202FA03F335490A6842F001020A60B7
:1005A000334C2168DA4311402160C189C9B9103C3C
:1005B000216811402160C5884488418901F10061AA
:1005C00001F6C841C90044EA05440C6085880488E6
:1005D000418901F1006101F6C841C90044EA0544BE
:1005E0004C60C189012917D0818900292FD1214C64
:1005F000216811402160018900292DD11E490C6814
:1006000022400A60027C012A2BD0184A136823F08A
:100610000103136030BC7047184C216819432160F6
:1006200005884488418901F1006101F6C841C9008B
:1006300044EA05440C608588C488418901F1006161
:1006400001F6C841C90044EA05444C60CCE7094CB6
:10065000216819432160CEE707490A681A430A60F6
:10066000D0E703490A6813430B60CEE700660040F9
:100670001C66004004660040146600400C660040A2
:1006800010B400EB0113D3F8B04104F00404147269
:10069000002C3CD1D3F8B041640D1460D3F8B041C4
:1006A00004F002045472D3F8B441C4F3072482F86E
:1006B0004B40D3F8B44104F00F049472D3F8B8411E
:1006C000D472D3F8B841C4F307241473D3F8B841F3
:1006D000C4F307445473D3F8B841240E9473D3F889
:1006E000BC41D473D3F8BC41C4F307241474D3F8C9
:1006F000BC41C4F307445474D3F8BC311B0E93744B
:1007000051B9C36843F02003C36010BC7047D3F8ED
:10071000B041E4085460C1E7036943F0200303617A
:10072000F3E7436919434161704708B54FF44070DE
:1007300000F000F94FF4407000F00AF908BDF0B481
:1007400001F00F0611F0100F00D01643002203E055
:1007500044610560013292B2072A14D80124944002
:100760001C40F7D0076895004FF00F0C0CFA05FC01
:1007700027EA0C0706FA05F53D432829E8D0482961
:10078000E7D10461E5E7082203E0446145600132F6
:1007900092B20F2A17D8012494401C40F7D0476822
:1007A00002F18045083DAD004FF00F0C0CFA05FC3E
:1007B00027EA0C0706FA05F53D432829E5D0482924
:1007C000E4D10461E2E7F0BC70477047FEE7FEE762
:1007D000FEE7FEE7704770477047000010B5194C00
:1007E000224601211848FFF74BFF6268174B1B6830
:1007F0009A4202D09A4207D010BD154901200870D4
:10080000144900200860F5E70E4B9B6803F0FF13C6
:10081000114A9342F0D10B4BDB7A1A090F490A6057
:10082000012AE9D1074A127B02F003020C490A604F
:1008300003F00F030B4A1360062BDDDC0A4A13603A
:10084000DAE700BFA0010020006400401000002093
:10085000EC01002030010020040002001C010020F7
:100860002C010020180100204C01002040F0BF6046
:1008700040F40030014BD860704700BF00ED00E04D
:1008800070B505460E461446214BDA6802F4E06264
:10089000B2F5A06F32D008D9B2F5C06F34D0B2F53E
:1008A000E06F24D10422002307E0B2F5407F28D076
:1008B000B2F5806F1BD101220323C3F1040306FAB2
:1008C00003F1C2F104020F2323FA02F204EA020345
:1008D0000B431B01DBB20F4A511981F8003305F0BD
:1008E0001F016D0901238B4042F8253070BD4FF484
:1008F000A060FFF7BBFF02221346DEE70222134689
:10090000DBE700220423D8E703220123D5E700BF59
:1009100000ED00E000E100E0830903F1804303F50E
:1009200004331A6800F01F00012101FA00F00243AD
:100930001A607047830903F1804303F504331A6892
:1009400000F01F00012101FA00F002431A60704715
:10095000830903F1804303F504331A6800F01F0094
:10096000012101FA00F022EA00021A60704700003B
:1009700008B5334B984251D013D9324B984256D0D8
:100980001BD9314B984225D003F50063984213D10F
:1009900040F20D30FFF7CEFF40F20D30FFF7D8FFE9
:1009A0000AE0A3F50063984226D003F580639842DD
:1009B0002BD0B0F1804F16D008BDA3F580639842CC
:1009C000FAD140F20440FFF7B5FF40F20440FFF7D0
:1009D000BFFFF1E740F20B30FFF7ACFF40F20B3006
:1009E000FFF7B6FFE8E74FF48060FFF7A3FF4FF48F
:1009F0008060FFF7ADFFDFE740F20140FFF79AFFAD
:100A000040F20140FFF7A4FFD6E740F20240FFF7B3
:100A100091FF40F20240FFF79BFFCDE740F2034019
:100A2000FFF788FF40F20340FFF792FFC4E740F270
:100A30000540FFF77FFF40F20540FFF789FFBBE766
:100A4000000C004000140040002C01400B88836221
:100A50002F4B98422AD0B0F1804F27D0A3F5943382
:100A6000984223D003F5806398421FD003F580633A
:100A700098421BD003F59433984217D003F5C05326
:100A8000984213D003F5806398420FD003F580633A
:100A900098420BD0A3F59E33984207D003F58063AC
:100AA000984203D003F5806398420FD1036823F086
:100AB0007003036003684A8802F060021343036016
:100AC00003688A8802F01002134303608B68C362D4
:100AD000104B98420DD003F58063984209D003680B
:100AE00023F44073036003688A8902F4407213435D
:100AF0000360074B984203D003F50063984201D18D
:100B00008B7B0363436943F001034361704700BF7C
:100B1000002C014000100040036843F00103036013
:100B20007047036843F0800303607047012904D0D5
:100B3000436C23F4004343647047436C43F4004325
:100B400043647047032900F2EE80DFE811F00400EF
:100B500041008400C600036A23F001030362836935
:100B600023F003038361036A11880B430362036A62
:100B700023F002030362036A91880B4303626A4B0A
:100B8000984204D003F50063984240F0CC80036A99
:100B900023F004030362036A51880B430362036A70
:100BA00023F008030362036AD1880B43036243689E
:100BB00023F480734360436811890B4343604368A7
:100BC00023F40073436043685289134343607047C2
:100BD000036A23F010030362836923F44073836183
:100BE000036A118843EA01130362036A23F02003B6
:100BF0000362036A918843EA011303624A4B9842F5
:100C000004D003F50063984240F08D80036A23F01E
:100C100040030362036A518843EA01130362036AD3
:100C200023F080030362036AD18843EA011303625D
:100C3000436823F4806343604368118943EA810376
:100C40004360436823F4006343604368528943EA86
:100C5000820343607047036A23F480730362C369AD
:100C600023F00303C361036A118843EA012303628B
:100C7000036A23F400730362036A918843EA012341
:100C80000362294B984203D003F5006398424AD18E
:100C9000036A23F480630362036A518843EA0123F1
:100CA0000362036A23F400630362036AD18843EAA0
:100CB00001230362436823F480534360436811892E
:100CC00043EA01134360436823F4005343604368DD
:100CD000528943EA021343607047036A23F4805346
:100CE0000362C36923F44073C361036A118843EA52
:100CF00001330362036A23F400530362036A918899
:100D000043EA01330362084B984203D003F50063C2
:100D1000984208D1436823F48043436043681289B2
:100D200043EA821343607047002C0140032924D812
:100D3000DFE801F0020A131B836923F0700383616B
:100D400083691A4382617047836923F4E0438361B6
:100D5000836943EA022282617047C36923F070030A
:100D6000C361C3691A43C2617047C36923F4E04396
:100D7000C361C36943EA0222C261704703290AD8EA
:100D8000DFE801F00204060842637047826370479F
:100D9000C263704702647047032924D8DFE801F07A
:100DA000020A131B836923F00803836183691A43D2
:100DB00082617047836923F400638361836943EA36
:100DC000022282617047C36923F00803C361C369CB
:100DD0001A43C2617047C36923F40063C361C369E6
:100DE00043EA0222C26170472DE9F04385B0044610
:100DF0000F46435633BB042528462146ABBE044666
:100E0000384605B0BDE8F08304AA1344002203F875
:100E1000102C4FF00408E94640464946ABBE8046D8
:100E2000761B002EECD03546102E28BF102500234F
:100E3000AB42E9D214F9011B04AA1A4402F8101CAF
:100E40000133F5E70E46ECE708B5FFF7CDFF08BD27
:100E50000FB400B583B004AB53F8042B0193802189
:100E6000074800F017FF002804DC03B05DF804EB2E
:100E700004B0704701460248FFF7E6FFF5E700BF00
:100E800088000020F8B504460D4617461E46274840
:100E9000FFF7DEFF21682648FFF7DAFF6168254883
:100EA000FFF7D6FFA1682448FFF7D2FFE168234887
:100EB000FFF7CEFF21692248FFF7CAFF6169214889
:100EC000FFF7C6FFA1692048FFF7C2FFE1691F488D
:100ED000FFF7BEFF1E48FFF7BBFF29461D48FFF77F
:100EE000B7FF1D4CE16A1D48FFF7B2FF216B1C489C
:100EF000FFF7AEFFE16B1B48FFF7AAFF15F0800F6D
:100F00000AD115F4004F0CD11748FFF7A1FF06993D
:100F10001648FFF79DFFF8BD39461548FFF798FFC3
:100F2000EFE731461348FFF793FFEDE7A4240008ED
:100F3000B4240008C4240008D4240008E4240008D1
:100F4000F4240008042500081425000824250008BE
:100F5000342500084025000800ED00E05025000879
:100F60006025000870250008A0250008A8250008B5
:100F7000802500089025000883691A888A4201D0DC
:100F8000002070470268033A012A01D90020704707
:100F9000023383610120704708B500F061F8024A0E
:100FA000024B9A6008BD00BF0000000800ED00E0A1
:100FB00008B500F083F808BD254A136843F4803370
:100FC000136000230133224A126812F4003F03D158
:100FD0004FF6FF729342F5D11D4B1B6813F4003F8F
:100FE00000D1FEE71B4B1A681A601A681A601A686B
:100FF00042F480621A601A6822F440321A601A6859
:1010000042F440321A601A6822F0036222F440224D
:101010001A601A6842F0026242F400221A600C4A16
:10102000136843F080731360094B1B6813F0007F53
:10103000FAD0084B1A6822F003021A601A6842F0CC
:1010400002021A60034B1B6813F0080FFAD07047B6
:10105000001002400410024008B5FFF7ADFF08BDC4
:1010600008B5134B1A6842F001021A60114908686A
:10107000114A02400A601A6822F0847222F4803217
:101080001A601A6822F480221A600A6822F00F623D
:1010900022F470220A601A6822F0847222F48032EC
:1010A0001A6008334FF41F021A60FFF7D5FF08BD1E
:1010B00000100240041002400C00FFE81B4B1B68AC
:1010C000C3F38103012B0AD02BB1022B0BD0184B99
:1010D000184A1A607047164B164A1A607047144B2C
:1010E000144A1A607047114B1B6813F4803F06D0F6
:1010F0000E4B1B6813F4003F14D10E4A00E00E4A59
:101100000A490B68C3F38343096811F0006F01D0EB
:1011100043F010030E2B07D9013302FB03F3044AFB
:1011200013607047044AEBE70233F6E7041002400D
:101130000C00002000127A0000093D0082B0F0B5DA
:1011400085B001AD85E807000AAE46F8043F2946A0
:101150000020FFF749F931460120FFF745F9224FFA
:101160003846FFF731F900248DF808408DF8094022
:101170008DF80A408DF80B408DF80C408DF80D402D
:101180008DF804408DF8054004238DF806300223C5
:101190008DF807301823ADF80E3029463846FFF792
:1011A0006AF9ADF83640ADF838400123ADF83A3071
:1011B0004CF2FD72ADF82C208422ADF82E204FF6B3
:1011C000FF72ADF8302048F2FC72ADF83220ADF875
:1011D00034308DF83C303046FFF7D8F905B0BDE823
:1011E000F04002B0704700BF0064004008B5002224
:1011F00011461520FFF744FB08BD000010B5FFF7AE
:1012000094FA40F21970FFF787FB40F20260FFF793
:1012100083FB40F20360FFF77FFB4FF4C060FFF7F2
:101220007BFB134C4FF40063032248212046FFF759
:1012300086FA4FF48053032218212046FFF77FFAE5
:1012400004F580644FF40053032218212046FFF771
:1012500076FA4FF48043032218212046FFF76FFAF5
:101260004FF40043032218212046FFF768FA10BD0F
:101270000008014070B588B040F20B60FFF74CFBEE
:10128000364D2846FFF774FB6B23ADF8043000247D
:10129000ADF80640ADF8084041F63F730393ADF852
:1012A00010408DF8124001A92846FFF7CFFB012618
:1012B000ADF814600423ADF81630ADF81840ADF861
:1012C0001A40ADF81C40ADF81E4005AA214628463C
:1012D000FFF738FC05AA31462846FFF733FC05AA7C
:1012E00002212846FFF72EFC224621462846FFF71A
:1012F00045FD602221462846FFF718FD224621467B
:101300002846FFF749FD224631462846FFF736FDBD
:10131000602231462846FFF709FD2246314628461D
:10132000FFF73AFD224602212846FFF727FD6022FB
:1013300002212846FFF7FAFC224602212846FFF741
:101340002BFD31462846FFF7F1FB2846FFF7E9FB66
:101350002846FFF7E1FB08B070BD00BF002C01403C
:10136000032816D8DFE800F002070C11094B4FF4F0
:101370003A721A607047074B40F2E7721A60704782
:10138000044B41F27D021A607047024B41F63F72F6
:101390001A6070473401002010B5294B1B68012BDF
:1013A0001CD0022B33D003B110BD264C00220121EA
:1013B0002046FFF7E3FC002211462046FFF7DEFC43
:1013C000002202212046FFF7D9FC4FF47A7000F08A
:1013D00009FC1B4A136801331360E5E7194C00222E
:1013E00001212046FFF7CAFC002211462046FFF7E4
:1013F000C5FC002202212046FFF7C0FC4FF47A70A2
:1014000000F0F0FB0E4A136801331360CCE70D4C7B
:10141000002201212046FFF7B1FC002211462046A0
:10142000FFF7ACFC002202212046FFF7A7FC4FF497
:101430007A7000F0D7FB024B00221A60B4E700BFBD
:1014400030010020002C014038B52A4B1B68012BCD
:101450001DD0022B35D003B138BD274D274C2A882B
:1014600001212046FFF78AFC002211462046FFF7A3
:1014700085FC2A8802212046FFF780FC4FF47A7011
:1014800000F0B0FB1B4A136801331360E4E71A4D08
:101490001A4C2A8801212046FFF770FC00221146D1
:1014A0002046FFF76BFC2A8802212046FFF766FCE6
:1014B0004FF47A7000F096FB0E4A13680133136004
:1014C000CAE70D4D0D4C2A8801212046FFF756FC36
:1014D000002211462046FFF751FC2A8802212046AF
:1014E000FFF74CFC4FF47A7000F07CFB014B0022BC
:1014F0001A60B1E73001002034010020002C0140C7
:1015000010B52A4B1B68012B1DD0022B35D003B11F
:1015100010BD274C274B1A8801212046FFF72EFCCF
:10152000002211462046FFF729FC00220221204616
:10153000FFF724FC4FF47A7000F054FB1B4A136849
:1015400001331360E4E71A4C1A4B1A880121204634
:10155000FFF714FC002211462046FFF70FFC002283
:1015600002212046FFF70AFC4FF47A7000F03AFBA4
:101570000E4A136801331360CAE70D4C0D4B1A88ED
:1015800001212046FFF7FAFB002211462046FFF713
:10159000F5FB002202212046FFF7F0FB4FF47A70A2
:1015A00000F020FB014B00221A60B1E7300100205F
:1015B000002C01403401002010B52A4B1B68012B80
:1015C0001DD0022B35D003B110BD274C00220121C4
:1015D0002046FFF7D3FB002211462046FFF7CEFB43
:1015E000224B1A8802212046FFF7C8FB4FF47A707D
:1015F00000F0F8FA1B4A136801331360E4E71A4C51
:10160000002201212046FFF7B9FB002211462046A7
:10161000FFF7B4FB154B1A8802212046FFF7AEFBFB
:101620004FF47A7000F0DEFA0E4A1368013313604B
:10163000CAE70D4C002201212046FFF79FFB002244
:1016400011462046FFF79AFB084B1A8802212046D4
:10165000FFF794FB4FF47A7000F0C4FA014B0022BC
:101660001A60B1E730010020002C01403401002055
:1016700038B5684B1B68012B35D0022B56D003B10F
:1016800038BD654C002201212046FFF777FB002280
:1016900011462046FFF772FB002202212046FFF789
:1016A0006DFB5E4D2A8801212046FFF767FB2A88E3
:1016B00002212046FFF762FB4FF4C87000F092FA57
:1016C000002201212046FFF759FB0022022120467B
:1016D000FFF754FB4FF4167000F084FA4D4A13687C
:1016E00001331360CCE74D4D4B4C2A880121204635
:1016F000FFF744FB2A8802212046FFF73FFB4FF407
:10170000C87000F06FFA002201212046FFF736FB77
:10171000002202212046FFF731FB4FF4167000F043
:1017200061FA3C4A136801331360A9E73B4D3A4C18
:101730002A8801212046FFF721FB2A880021204624
:10174000FFF71CFB2A8802212046FFF717FB5020D9
:1017500000F048FA002201212046FFF70FFB00228B
:1017600011462046FFF70AFB002202212046FFF720
:1017700005FB502000F036FA2A8801212046FFF7A9
:10178000FDFA2A8800212046FFF7F8FA2A8802216C
:101790002046FFF7F3FA502000F024FA002201213E
:1017A0002046FFF7EBFA002211462046FFF7E6FA43
:1017B000002202212046FFF7E1FA502000F012FA41
:1017C0002A8801212046FFF7D9FA2A8800212046DD
:1017D000FFF7D4FA2A8802212046FFF7CFFA5020DB
:1017E00000F000FA002201212046FFF7C7FA00228C
:1017F00011462046FFF7C2FA002202212046FFF7D9
:10180000BDFA4FF4167000F0EDF9024B00221A6099
:1018100036E700BF30010020002C014034010020D9
:1018200038B54F4B1B68012B2BD0022B42D003B194
:1018300038BD4C4C002201212046FFF79FFA0022C0
:1018400011462046FFF79AFA002202212046FFF7B0
:1018500095FA454B1A8801212046FFF78FFA4FF47D
:10186000C87000F0BFF9002201212046FFF786FA78
:101870004FF4167000F0B6F9394A1368013313605B
:10188000D6E7384C384B1A8801212046FFF776FA04
:101890004FF4C87000F0A6F9002201212046FFF79E
:1018A0006DFA4FF4167000F09DF92D4A136801335C
:1018B0001360BDE72C4D2B4C2A8801212046FFF7F1
:1018C0005DFA2A8800212046FFF758FA502000F0E0
:1018D00089F9002201212046FFF750FA0022114623
:1018E0002046FFF74BFA502000F07CF92A880121AE
:1018F0002046FFF743FA2A8800212046FFF73EFAE8
:10190000502000F06FF9002201212046FFF736FA3F
:10191000002211462046FFF731FA502000F062F90C
:101920002A8801212046FFF729FA2A88002120462B
:10193000FFF724FA502000F055F90022012120463B
:10194000FFF71CFA002211462046FFF717FA4FF462
:10195000167000F047F9024B00221A6068E700BFDA
:1019600030010020002C01403401002038B54F4BDD
:101970001B68012B2BD0022B42D003B138BD4C4C3D
:10198000002201212046FFF7F9F9002211462046E6
:10199000FFF7F4F9002202212046FFF7EFF9454B4B
:1019A0001A8802212046FFF7E9F94FF4C87000F0C9
:1019B00019F9002202212046FFF7E0F94FF41670D2
:1019C00000F010F9394A136801331360D6E7384C38
:1019D000384B1A8802212046FFF7D0F94FF4C8701F
:1019E00000F000F9002202212046FFF7C7F94FF46A
:1019F000167000F0F7F82D4A136801331360BDE745
:101A00002C4D2B4C2A8800212046FFF7B7F92A8855
:101A100002212046FFF7B2F9502000F0E3F800223F
:101A200011462046FFF7AAF9002202212046FFF7BF
:101A3000A5F9502000F0D6F82A8800212046FFF7AB
:101A40009DF92A8802212046FFF798F9502000F0DE
:101A5000C9F8002211462046FFF790F90022022122
:101A60002046FFF78BF9502000F0BCF82A880021AF
:101A70002046FFF783F92A8802212046FFF77EF9E6
:101A8000502000F0AFF8002211462046FFF776F90B
:101A9000002202212046FFF771F94FF4167000F082
:101AA000A1F8024B00221A6068E700BF3001002055
:101AB000002C01403401002008B5062807D8DFE8D3
:101AC00000F004070A0D10131600FFF765FC08BDAF
:101AD000FFF7BAFCFBE7FFF713FDF8E7FFF76CFD34
:101AE000F5E7FFF7C5FDF2E7FFF79AFEEFE7FFF72F
:101AF0003DFFECE780B584B000F056F80025204BA0
:101B00001D70204B1D70FFF779FBFFF76FFBFFF790
:101B1000B1FB1D4F1D4E6B463C4654F8040F6168E7
:101B2000A26807C3A2891A803B6830687168B268EE
:101B3000FFF704FB10211648FEF7F3FD154C214674
:101B40000220FEF751FC2560134B6360657204238D
:101B500023720223A372E572257310490320FEF756
:101B600043FC07E00E4B1868FFF7FAFB0D4B1868B3
:101B7000FFF7A2FF024B1B78012BFBD1F2E700BF5E
:101B8000EC0100209C0100203801002020010020F1
:101B900000640040500100201EA7FF18A001002093
:101BA0002C0100204C0100200A4B1B680A4AA2FBB2
:101BB00003239B09013BB3F1807F09D2074A53609D
:101BC000074BF02183F82310002393600723136051
:101BD000704700BF0C000020D34D621010E000E001
:101BE00000ED00E0034B1860024B1B68002BFBD19B
:101BF000704700BFF0010020034B1B681BB1024A75
:101C00001368013B13607047F001002008B5FFF72F
:101C1000F3FF08BD014B1868704700BF1400002097
:101C20000A44914200F1FF3300D1704710B511F81A
:101C3000014B914203F8014FF9D110BD30B5141E8C
:101C400005469BB0184605DA8B234FF0FF302B601A
:101C50001BB030BD4FF40273ADF80C300CBF2346FF
:101C600004F1FF33029305934FF6FF730091049143
:101C7000ADF80E3002461E9B6946284600F074F807
:101C8000431CBCBF8B232B60002CE1D00022009BA7
:101C90001A70DDE707B5009313460A46014603486C
:101CA0000068FFF7CBFF03B05DF804FB14000020D1
:101CB0002DE9F0478E6882469E420C469146984632
:101CC00038D8B1F80CC01CF4906F31D06269256827
:101CD000096902EB42026F1A02EBD272013355100E
:101CE0003B449D4238BF1D461CF4806F30D02946CE
:101CF00000F032FB064650B90C234FF0FF30CAF813
:101D00000030A38943F04003A381BDE8F0873A4641
:101D10002169FFF785FFA38923F4906343F08003D3
:101D2000A38126613E44266046466561ED1BA560A1
:101D3000464500D9464632464946206800F0A6FA94
:101D4000A36800209B1BA36023681E442660DCE779
:101D50002A4600F05BFB06460028E2D12169504686
:101D600000F0AEFAC8E700002DE9F04F1E468B895F
:101D70009DB01B0607460D4614460ED50B6963B988
:101D8000402100F0E9FA2860286120B90C233B606B
:101D90004FF0FF30C9E040236B61002309932023FB
:101DA0008DF8293030234FF0010ADFF898918DF833
:101DB0002A30039623461E4613F8012B0AB1252A22
:101DC000F9D1B6EB040B0BD05B46224629463846C8
:101DD000FFF76EFF013000F0A380099B5B4409937D
:101DE0003378002B00F09C8000234FF0FF32CDE9C8
:101DF00005230136049307938DF853301A93344624
:101E0000052214F8011B4F4800F032FA049BC0B9B8
:101E1000D90644BF20228DF853201A0744BF2B2235
:101E20008DF8532032782A2A13D0344600200A260F
:101E3000079A214611F8013B303B092B4BD970B969
:101E400014E0A0EB09000AFA00F0184304902646BB
:101E5000D5E7039A111D12680391002A01DB07924E
:101E600004E0524243F002030792049323782E2B9E
:101E70000CD163782A2B33D1039B02341A1D1B68C3
:101E80000392002BB8BF4FF0FF3305932E4E032271
:101E90002178304600F0ECF938B14023801B03FA7A
:101EA00000F0049B01340343049314F8011B062241
:101EB00026488DF8281000F0DBF9002838D0244B94
:101EC00013BB039B073323F0070308330393099BDA
:101ED000434409936EE706FB023201200C46A8E753
:101EE00000230A26194601340593204610F8012BD9
:101EF000303A092A03D9002BC8D00591C6E706FB62
:101F0000012101230446F0E703AB00932A46114B5D
:101F100004A93846AFF30080B0F1FF3F8046D6D128
:101F2000AB895B063FF534AF09981DB0BDE8F08F73
:101F300003AB00932A46074B04A9384600F082F809
:101F4000EAE700BFEC250008F2250008F6250008A6
:101F500000000000B11C00082DE9F04791461F4623
:101F60008A680B6906469342B8BF1346C9F8003029
:101F700091F843200C46DDF8208012B10133C9F8F6
:101F800000302368990642BFD9F800300233C9F8FF
:101F90000030256815F0060507D104F1190AE36839
:101FA000D9F800209B1AAB4229DC94F84330226810
:101FB000003318BF012392062ED404F143023946A0
:101FC0003046C047013021D02368E56803F006039E
:101FD000042B18BF0025D9F800204FF0000908BFD6
:101FE000AD1AA368226908BF25EAE5759342C4BF0C
:101FF0009B1AED181A344D451AD1002008E0012330
:10200000524639463046C047013003D14FF0FF30C9
:10201000BDE8F0870135C2E73020E11881F84300C0
:102020005A1C94F845102244023382F84310C4E746
:102030000123224639463046C0470130E6D009F137
:102040000109D8E72DE9F04306460C4601F14300AB
:10205000097E85B06E29984617460C9B00F0BB8020
:1020600024D8632939D00AD8002900F0C48058291F
:1020700000F0928004F1420584F8421035E06429B2
:1020800001D06929F6D125681A6815F0800F02F190
:1020900004012CD012681960002A03DA2D23524261
:1020A00084F84330DFF8C0C10A233FE0732900F011
:1020B000A68008D86F2921D07029DBD1226842F090
:1020C0002002226003E0752918D07829D2D1782225
:1020D000DFF898C184F8452062E01A6804F14205EF
:1020E000111D1960136884F84230012394E01268CE
:1020F00015F0400F196018BF12B2CDE7D4F800C038
:102100001A681CF0800F02F104051D6001D01268EE
:1021100003E01CF0400FFAD012886F290CBF08238F
:102120000A23DFF844C1002184F843106568002DBC
:10213000A8BF2168A560A4BF21F0040121600AB9ED
:10214000002D46D00546B2FBF3F103FB112E1CF81F
:102150000EE0934205F801ED39D9082B0BD1236825
:10216000DA0708D5236962689A42DEBF302305F892
:10217000013C05F1FF35401B2061CDF800803B4656
:1021800003AA21463046FFF7E7FE013049D14FF060
:10219000FF3005B0BDE8F083DFF8CCC084F845100F
:1021A0001D68216855F8042B1D600D060BD5CD0761
:1021B00044BF41F0200121601AB9236823F02003B5
:1021C00023601023AFE74B0648BF92B2EFE70A4601
:1021D000B9E70546C1E71A68D4F800C0151D616962
:1021E0001CF0800F1D60136801D0196003E01CF023
:1021F000400FFAD01980002305462361BDE71A6815
:10220000111D1960156800216268284600F030F839
:1022100008B1401B606063682361002384F8433089
:10222000ABE723692A4639463046C0470130AED075
:1022300023689B0713D4E068039B9842B8BF1846F5
:10224000A7E701234A4639463046C04701309ED0B1
:102250000135E368039A9B1AAB42F2DCEBE70025F9
:1022600004F11909F5E700BFFD2500080E26000856
:1022700010B5C9B202449042034601D1002303E0E5
:102280001C7801308C42F6D1184610BD884210B53A
:1022900001EB020302D983421C4607D8421E994231
:1022A00008D011F8014B02F8014FF8E783189A1A89
:1022B0009A4200D110BD14F8011D03F8011DF7E783
:1022C00038B50546002943D051F8043C0C1F002BBB
:1022D000B8BFE41800F0D0F81E4A1368104633B9AE
:1022E000636014602846BDE8384000F0CBB8A342D4
:1022F0000BD921686218934201BF1A685B685218B3
:10230000226063600460EDE713465A680AB1A24296
:10231000FAD919685818A0420BD1206801445818FE
:1023200082421960DED110685268014419605A6017
:10233000D8E702D90C232B60D4E7206821188A4201
:1023400001BF116852680918216062605C60C9E7CA
:1023500038BD00BF08010020F8B5CD1C25F00305ED
:1023600008350C2D38BF0C25002D064601DBA9428F
:1023700003D90C2333600020F8BD00F07DF821491B
:102380000A6814469CB9204F3B6823B92146304661
:1023900000F062F838602946304600F05DF8431CD2
:1023A00023D10C233046336000F06CF8E3E7236858
:1023B0005B1B17D40B2B03D923601C44256004E05E
:1023C0006368A2420CBF0B605360304600F05AF8BD
:1023D00004F10B00231D20F00700C21ACCD01B1AF9
:1023E000A350C9E722466468CCE7C41C24F0030468
:1023F000A042E3D0211A304600F02EF80130DDD1A2
:10240000CFE700BF080100200C010020F8B5074607
:1024100014460E4621B91146BDE8F840FFF79CBFAF
:1024200022B9FFF74DFF25462846F8BD00F030F8E9
:10243000A0420FD221463846FFF78EFF05460028FE
:10244000F2D031462246FFF7EBFB31463846FFF724
:1024500037FFE9E73546E7E738B50023054C054681
:1024600008462360FDF786FF431C02D1236803B1B1
:102470002B6038BD10010020014800F011B800BFEA
:10248000F8010020014800F00CB800BFF80100205E
:1024900051F8043C181F002BBCBF0B58C0187047E4
:1024A00070477047537461636B206672616D653A63
:1024B0000A000000205230203D2020253038580AE4
:1024C00000000000205231203D2020253038580ADD
:1024D00000000000205232203D2020253038580ACC
:1024E00000000000205233203D2020253038580ABB
:1024F0000000000020523132203D20253038580A9B
:1025000000000000204C52203D2020253038580A81
:1025100000000000205043203D2020253038580A7C
:102520000000000020505352203D20253038580A2A
:10253000000000004653522F4641523A0A00000064
:102540002043465352203D2020253038580A0000B1
:102550002048465352203D2020253038580A00009C
:102560002044465352203D2020253038580A000090
:102570002041465352203D2020253038580A000083
:10258000204D4D464152203D20253038580A00004C
:102590002042464152203D2020253038580A000074
:1025A0004D6973630A000000204C522F4558435F69
:1025B00052455455524E3D20253038580A000000EF
:1025C0005B486172644661756C745D0A00000000CE
:1025D0005B4275734661756C745D0A005B5573618F
:1025E00067654661756C745D0A000000232D302B11
:1025F0002000686C4C006566674546470030313204
:10260000333435363738394142434445460030315A
:0F261000323334353637383961626364656600BA
:1026200078563412840000200000000000F36F068A
:1026300010A1FF181800002000000000000000009A
:10264000000000000000000000000000000000008A
:10265000000000000000000000000000000000007A
:10266000000000000000000000000000000000006A
:10267000000000000000000000000000000000005A
:10268000000000000000000000000000000000004A
:0C269000000000000000000032547698AA
:0400000508000105E9
:00000001FF
