:020000040800F2
:100000000050002019020008C5090008C7090008AF
:10001000C9090008CB090008CD090008000000004C
:10002000000000000000000000000000CF090008F0
:10003000D109000800000000D30900084517000896
:100040004503000845030008450300084503000870
:100050004503000845030008450300084503000860
:100060004503000845030008450300084503000850
:100070004503000845030008450300084503000840
:100080004503000845030008450300084503000830
:1000900045030008D509000845030008450300088A
:1000A0004503000845030008450300084503000810
:1000B0004503000845030008450300084503000800
:1000C00045030008450300084503000845030008F0
:1000D00045030008450300084503000845030008E0
:1000E0004503000845030008450300080000000020
:1000F0000000000000000000000000000000000000
:100100004503000800B583B000F0FCFD304B314AD8
:100110001360314A1360314B314A03E052F8041B3B
:1001200043F8041B2F498B42F8D32A4B1A682E4BF5
:100130009A4200D0FEE7284B1A682C4B9A42F9D11C
:10014000234B2B4A13602B4A13602B4B02E00022F7
:1001500043F8042B294A9342F9D3254B1B6813B962
:10016000244B1B6803B1FEE700F0D8FD694601A8E7
:1001700000F022F9224C234BE41AA410002504E0DD
:10018000204B53F8253098470135AC42F8DC1E4C23
:100190001E4BE41AA410002504E01C4B53F8253034
:1001A00098470135AC42F8DC0099019801F026FA35
:1001B0000546174C174BE41AA41004E0013C154BFC
:1001C00053F824309847002CF8DC284600F0D0F88B
:1001D000BABADECA0000002078000020000000202B
:1001E000A82100087C0000207856341232547698FA
:1001F0007C000020F40100207C000020F801002099
:100200007003000870030008700300087003000802
:10021000700300087003000808B5FFF773FF00BE05
:10022000FEE71EF0040F0CBFEFF30880EFF3098028
:100230007146414A10472DE9F04182B00446884694
:10024000124B5E6B9F6B9D6A1B6B13F0020F03D00A
:100250000E4BDB6A002B0CDB0D4800F0AFFCCDF839
:1002600000803B4632462946204600F0C1FC00BED5
:10027000FEE74BF6AB6100F035FD0028ECD0034BF8
:100280004FF00042DA6202B0BDE8F08100ED00E01C
:10029000F820000800BEFEE71EF0040F0CBFEFF3CD
:1002A0000880EFF309807146244A10472DE9F04198
:1002B00082B004468846084B5E6B9F6B9D6A074878
:1002C00000F07CFCCDF800803B46324629462046B3
:1002D00000F08EFC00BEFEE700ED00E00821000803
:1002E0001EF0040F0CBFEFF30880EFF30980714696
:1002F000134A10472DE9F04182B004468846084B66
:100300005E6B9F6B9D6A074800F058FCCDF800803B
:100310003B4632462946204600F06AFC00BEFEE716
:1003200000ED00E01421000800BEFEE700BEFEE77D
:1003300000BEFEE77047000037020008AD0200086B
:06034000F5020008FEE7D3
:10034800A8210008000000207C000020A821000847
:1003580000000010000000107C000020F8010020C0
:0803680000000010000000106D
:10037000FEE7000008B503460C4A12685AB10B4A62
:100380001068033323F003030344094A934206D859
:10039000064A136008BD054A06491160EFE701F0FF
:1003A000D5F90C2303604FF0FF30F3E78000002005
:1003B000004C0020F801002001230360014B0B607A
:1003C000704700BF0400002008B5064B984200D0DB
:1003D00008BD40F2194000F09FFB40F2194000F0C8
:1003E000A9FBF5E700640040032843D8DFE800F0EC
:1003F00002122D4000234B71CB718B7140F2FF3202
:100400004A810B724B7002228A70CB700B714B7257
:100410000B7070470123CB8100230B740B810B8081
:100420004B808B80CB808B814B817047CA1800201A
:10043000D0720133DBB2072BF8D900238B724B60EB
:1004400004220A724B720B6070470023F3E7CA184C
:100450000020D0720133DBB2072BF8D900238B7256
:100460004B6004220A7281F84B304B720B6070476C
:100470000023F1E7FEE710B4036823F002030360F2
:10048000036843F0010303604FF6FF73041D4268E5
:1004900012F0010F02D10BB1013BF7E7236813F013
:1004A000010F6ED00A784B781B0603F0407343EAC5
:1004B00082738A78120402F470221343CA781205F8
:1004C00002F4E00213434A89013AC2F309021343DA
:1004D000C3610B79012B33D0036823F080030360E1
:1004E0004B79012B31D0036823F0400303608B79F3
:1004F000012B2FD0036823F020030360CB79012B5D
:100500002DD0036843F0100303600B7A012B2BD02E
:10051000036843F0080303604B7A012B29D003687A
:1005200023F004030360036823F0010303604FF624
:10053000FF73226812F0010F20D0FBB1013BF8E7F6
:10054000036843F080030360CAE7036843F0400395
:100550000360CCE7036843F020030360CEE7036841
:1005600023F010030360D0E7036823F0080303605F
:10057000D2E7036843F004030360D4E723B9002003
:1005800000E0002010BC70470120FBE730B4438935
:10059000012202FA03F335490A6842F001020A60B7
:1005A000334C2168DA4311402160C189C9B9103C3C
:1005B000216811402160C5884488418901F10061AA
:1005C00001F6C841C90044EA05440C6085880488E6
:1005D000418901F1006101F6C841C90044EA0544BE
:1005E0004C60C189012917D0818900292FD1214C64
:1005F000216811402160018900292DD11E490C6814
:1006000022400A60027C012A2BD0184A136823F08A
:100610000103136030BC7047184C216819432160F6
:1006200005884488418901F1006101F6C841C9008B
:1006300044EA05440C608588C488418901F1006161
:1006400001F6C841C90044EA05444C60CCE7094CB6
:10065000216819432160CEE707490A681A430A60F6
:10066000D0E703490A6813430B60CEE700660040F9
:100670001C66004004660040146600400C660040A2
:1006800030B4836813F0806F09D1836813F0006F72
:1006900047D1836813F0805F50D0022400E000242B
:1006A00000EB0413D3F8802102F00102C3F880218B
:1006B0000A7A002A37D1D3F880210D68487A40EAB7
:1006C00045500243C3F88021D3F8842122F00F0261
:1006D000C3F88421D3F88421887A0243C3F88421A3
:1006E000887B4A7B120442EA0062087B42EA0022CD
:1006F000C87A0243C3F88821887C4A7C120442EA03
:100700000062087C42EA0022C97B0A43C3F88C21BC
:10071000D3F8802142F00102C3F88021204630BC8A
:1007200070470124BCE7D3F880014D6842EAC50256
:100730004D7A2A430243C3F88021C5E70324EDE73D
:1007400010B400EB0113D3F8B04104F004041472A8
:10075000002C3CD1D3F8B041640D1460D3F8B04103
:1007600004F002045472D3F8B441C4F3072482F8AD
:100770004B40D3F8B44104F00F049472D3F8B8415D
:10078000D472D3F8B841C4F307241473D3F8B84132
:10079000C4F307445473D3F8B841240E9473D3F8C8
:1007A000BC41D473D3F8BC41C4F307241474D3F808
:1007B000BC41C4F307445474D3F8BC311B0E93748A
:1007C00051B9C36843F02003C36010BC7047D3F82D
:1007D000B041E4085460C1E7036943F020030361BA
:1007E000F3E74369194341617047000030B4204D7D
:1007F0002C68C3431C402C6004352C681C402C60C2
:1008000004352C681C402C6004352C681C402C607E
:1008100049B101290CD0012A18D051B269B1022A7C
:100820001DD030BC7047124C216801432160F2E7B3
:10083000104C216801432160EDE70F490A6810431D
:10084000086004310A6813400B60EAE70A4A11683D
:100850000B4013600432136818431060E1E7064A46
:100860001368034313600432136818431060D8E719
:10087000000401400404014008040140014B1860D9
:10088000704700BF1404014008B54FF4407000F0F9
:1008900043F94FF4407000F04DF908BDF0B401F099
:1008A0000F0611F0100F00D01643002203E0446140
:1008B0000560013292B2072A14D8012494401C40EA
:1008C000F7D0076895004FF00F0C0CFA05FC27EAEB
:1008D0000C0706FA05F53D432829E8D04829E7D159
:1008E0000461E5E7082203E044614560013292B209
:1008F0000F2A17D8012494401C40F7D0476802F112
:100900008045083DAD004FF00F0C0CFA05FC27EABE
:100910000C0706FA05F53D432829E5D04829E4D11E
:100920000461E2E7F0BC70470AB1016170474161C0
:10093000704783680B4201D0012070470020704748
:1009400010B401F003039B000F229A4003290BD837
:1009500018490C6824EA02020A600A6800FA03F3E4
:100960001A430A6010BC704707290AD812490C685C
:1009700024EA02020A600C6800FA03F31C430C60CC
:10098000F0E70B290AD80D490C6824EA02020A6034
:100990000C6800FA03F31C430C60E3E708490C6899
:1009A00024EA02020A600A6800FA03F313430B60A8
:1009B000D8E700BF080001400C00014010000140D2
:1009C000140001407047FEE7FEE7FEE7FEE77047D0
:1009D0007047704710B5154C224601211448FFF7A7
:1009E000AFFE6368134A934203D002F580729342CC
:1009F00005D1114A01211170104A00211160104ADD
:100A00001268934200D010BD084B9B6803F0FF139F
:100A10000C4A9342F7D1054BDB7A03F00F030A4AE5
:100A20001360062BEFDC094A1360ECE79401002009
:100A30000064004010A1FF18E00100202801002000
:100A400010000020040001001801002040010020D7
:100A500040F0BF6040F40030014BD860704700BFE9
:100A600000ED00E070B505460E461446214BDA68ED
:100A700002F4E062B2F5A06F32D008D9B2F5C06FCF
:100A800034D0B2F5E06F24D10422002307E0B2F5A0
:100A9000407F28D0B2F5806F1BD101220323C3F120
:100AA000040306FA03F1C2F104020F2323FA02F24F
:100AB00004EA02030B431B01DBB20F4A511981F810
:100AC000003305F01F016D0901238B4042F82530EA
:100AD00070BD4FF4A060FFF7BBFF02221346DEE7B4
:100AE00002221346DBE700220423D8E70322012376
:100AF000D5E700BF00ED00E000E100E0830903F16D
:100B0000804303F504331A6800F01F00012101FA45
:100B100000F002431A607047830903F1804303F534
:100B200004331A6800F01F00012101FA00F00243AB
:100B30001A607047830903F1804303F504331A6890
:100B400000F01F00012101FA00F022EA00021A6001
:100B500070472DE9F04385B004460F46435633BB3A
:100B6000042528462146ABBE0446384605B0BDE8FC
:100B7000F08304AA1344002203F8102C4FF0040859
:100B8000E94640464946ABBE8046761B002EECD077
:100B90003546102E28BF10250023AB42E9D214F9A8
:100BA000011B04AA1A4402F8101C0133F5E70E4693
:100BB000ECE708B5FFF7CDFF08BD00000FB400B5A6
:100BC00083B004AB53F8042B01938021074800F055
:100BD000FDFD002804DC03B05DF804EB04B07047B1
:100BE00001460248FFF7E5FFF5E700BF8800002057
:100BF000F8B504460D4617461E462748FFF7DEFFA8
:100C000021682648FFF7DAFF61682548FFF7D6FF1D
:100C1000A1682448FFF7D2FFE1682348FFF7CEFF21
:100C200021692248FFF7CAFF61692148FFF7C6FF23
:100C3000A1692048FFF7C2FFE1691F48FFF7BEFF27
:100C40001E48FFF7BBFF29461D48FFF7B7FF1D4CA5
:100C5000E16A1D48FFF7B2FF216B1C48FFF7AEFFAA
:100C6000E16B1B48FFF7AAFF15F0800F0AD115F4BE
:100C7000004F0CD11748FFF7A1FF06991648FFF760
:100C80009DFFF8BD39461548FFF798FFEFE731465D
:100C90001348FFF793FFEDE7DC1F0008EC1F000887
:100CA000FC1F00080C2000081C2000082C20000855
:100CB0003C2000084C2000085C2000086C20000844
:100CC0007820000800ED00E0882000089820000847
:100CD000A8200008D8200008E0200008B82000085C
:100CE000C820000883691A888A4201D00020704712
:100CF0000268033A012A01D9002070470233836158
:100D00000120704708B500F061F8024A024B9A6072
:100D100008BD00BF0000000800ED00E008B500F0CD
:100D200083F808BD254A136843F480331360002319
:100D30000133224A126812F4003F03D14FF6FF72CA
:100D40009342F5D11D4B1B6813F4003F00D1FEE721
:100D50001B4B1A681A601A681A601A6842F480629B
:100D60001A601A6822F440321A601A6842F440325B
:100D70001A601A6822F0036222F440221A601A688C
:100D800042F0026242F400221A600C4A136843F0F7
:100D900080731360094B1B6813F0007FFAD0084B77
:100DA0001A6822F003021A601A6842F002021A60FE
:100DB000034B1B6813F0080FFAD070470010024075
:100DC0000410024008B5FFF7ADFF08BD08B5134B8E
:100DD0001A6842F001021A6011490868114A02407B
:100DE0000A601A6822F0847222F480321A601A684B
:100DF00022F480221A600A6822F00F6222F4702224
:100E00000A601A6822F0847222F480321A60083371
:100E10004FF41F021A60FFF7D5FF08BD0010024013
:100E2000041002400C00FFE81B4B1B68C3F3810356
:100E3000012B0AD02BB1022B0BD0184B184A1A6089
:100E40007047164B164A1A607047144B144A1A60C2
:100E50007047114B1B6813F4803F06D00E4B1B6884
:100E600013F4003F14D10E4A00E00E4A0A490B6801
:100E7000C3F38343096811F0006F01D043F01003FE
:100E80000E2B07D9013302FB03F3044A13607047AA
:100E9000044AEBE70233F6E7041002400C0000209E
:100EA00000127A0000093D00034B53F82030034A3A
:100EB00052F820201A6170473021000824210008D0
:100EC000034B53F82030034A52F820205A617047F0
:100ED000302100082421000838B5094B53F8204080
:100EE000084B53F8205029462046FFF722FDC0F159
:100EF0000102D2B229462046FFF716FD38BD00BFD9
:100F0000302100082421000838B504460D46174B4F
:100F100033F81000FFF7F2FD4FF4C060FFF7EEFD6D
:100F2000134B53F8243003220421124850F82400B4
:100F3000FFF7B4FC012D00D038BD002202210E4B7A
:100F4000185DFFF78FFD0D4B195D0D4B185DFFF719
:100F5000F7FC0C4B53F82440012200212046FFF7F8
:100F600045FC2046FFF78AFCE6E700BF3C2100086D
:100F70005421000864210008502100086021000865
:100F8000702100084421000882B0F0B585B001ADA1
:100F900085E807000AAE46F8043F29460020FFF71F
:100FA00023FA31460120FFF71FFA224F3846FFF798
:100FB0000BFA00248DF808408DF809408DF80A409E
:100FC0008DF80B408DF80C408DF80D408DF80440E5
:100FD0008DF8054004238DF8063002238DF8073084
:100FE0001823ADF80E3029463846FFF744FAADF81D
:100FF0003640ADF838400123ADF83A304CF2FD727E
:10100000ADF82C208422ADF82E204FF6FF72ADF8FB
:10101000302048F2FC72ADF83220ADF834308DF853
:101020003C303046FFF7B2FA05B0BDE8F04002B000
:10103000704700BF0064004008B50022114615202B
:10104000FFF710FD08BD000010B5FFF71DFC40F2D2
:101050001970FFF753FD40F20260FFF74FFD40F2B9
:101060000360FFF74BFD4FF4C060FFF747FD134CE3
:101070004FF40063032248212046FFF70FFC4FF492
:101080008053032218212046FFF708FC04F58064F2
:101090004FF48053032210212046FFF7FFFB4FF44B
:1010A0000053032210212046FFF7F8FB4FF4804342
:1010B000032210212046FFF7F1FB10BD000801407C
:1010C00008B51E4B1B68012B15D0022B25D003B190
:1010D00008BD0020FFF7F4FE0120FFF7F1FE02201B
:1010E000FFF7EEFE4FF47A7000F018FB134A136816
:1010F00001331360ECE70020FFF7E2FE0120FFF769
:10110000DFFE0220FFF7DCFE4FF47A7000F006FBF2
:101110000A4A136801331360DAE70020FFF7D0FEB4
:101120000120FFF7CDFE0220FFF7CAFE4FF47A70D0
:1011300000F0F4FA014B00221A60C9E728010020F0
:1011400008B51E4B1B68012B15D0022B25D003B10F
:1011500008BD0020FFF7A8FE0120FFF7B1FE022026
:10116000FFF7A2FE4FF47A7000F0D8FA134A136822
:1011700001331360ECE70020FFF796FE0120FFF734
:101180009FFE0220FFF790FE4FF47A7000F0C6FA3F
:101190000A4A136801331360DAE70020FFF784FE80
:1011A0000120FFF78DFE0220FFF77EFE4FF47A70DC
:1011B00000F0B4FA014B00221A60C9E728010020B0
:1011C00008B51E4B1B68012B15D0022B25D003B18F
:1011D00008BD0020FFF768FE0120FFF771FE022026
:1011E000FFF76EFE4FF47A7000F098FA134A136816
:1011F00001331360ECE70020FFF756FE0120FFF7F4
:101200005FFE0220FFF75CFE4FF47A7000F086FA72
:101210000A4A136801331360DAE70020FFF744FE3F
:101220000120FFF74DFE0220FFF74AFE4FF47A70CF
:1012300000F074FA014B00221A60C9E7280100206F
:1012400008B51E4B1B68012B15D0022B25D003B10E
:1012500008BD0020FFF734FE0120FFF731FE022019
:10126000FFF722FE4FF47A7000F058FA134A136821
:1012700001331360ECE70020FFF722FE0120FFF7A7
:101280001FFE0220FFF710FE4FF47A7000F046FABE
:101290000A4A136801331360DAE70020FFF710FEF3
:1012A0000120FFF70DFE0220FFF7FEFD4FF47A70DC
:1012B00000F034FA014B00221A60C9E7280100202F
:1012C00008B5484B1B68012B25D0022B3CD003B13D
:1012D00008BD0020FFF7F4FD0120FFF7F1FD02201B
:1012E000FFF7EEFD0020FFF7F7FD0220FFF7F4FD0A
:1012F0004FF4C87000F012FA0020FFF7EDFD022055
:10130000FFF7EAFD4FF4167000F008FA354A13684B
:1013100001331360DCE70020FFF7DEFD0220FFF75A
:10132000DBFD4FF4C87000F0F9F90020FFF7D4FDA1
:101330000220FFF7D1FD4FF4167000F0EFF9294AB3
:10134000136801331360C3E70020FFF7C5FD0120D8
:10135000FFF7C2FD0220FFF7BFFD502000F0DEF9CD
:101360000020FFF7B9FD0120FFF7B6FD0220FFF7CF
:10137000B3FD502000F0D2F90020FFF7ADFD0120B1
:10138000FFF7AAFD0220FFF7A7FD502000F0C6F9E5
:101390000020FFF7A1FD0120FFF79EFD0220FFF7CF
:1013A0009BFD502000F0BAF90020FFF795FD0120C9
:1013B000FFF792FD0220FFF78FFD502000F0AEF9FD
:1013C0000020FFF789FD0120FFF786FD0220FFF7CF
:1013D00083FD4FF4167000F0A1F9024B00221A6051
:1013E00076E700BF2801002008B5394B1B68012BA8
:1013F0001FD0022B30D003B108BD0020FFF760FDE5
:101400000120FFF75DFD0220FFF75AFD0020FFF7E6
:1014100063FD4FF4C87000F081F90020FFF75CFD18
:101420004FF4167000F07AF9294A136801331360FB
:10143000E2E70020FFF750FD4FF4C87000F06EF9AE
:101440000020FFF749FD4FF4167000F067F9204ABD
:10145000136801331360CFE70020FFF73DFD012043
:10146000FFF73AFD502000F059F90020FFF734FD56
:101470000120FFF731FD502000F050F90020FFF768
:101480002BFD0120FFF728FD502000F047F9002038
:10149000FFF722FD0120FFF71FFD502000F03EF96D
:1014A0000020FFF719FD0120FFF716FD502000F086
:1014B00035F90020FFF710FD0120FFF70DFD4FF477
:1014C000167000F02BF9024B00221A6094E700BF5F
:1014D0002801002008B5394B1B68012B1FD0022BB7
:1014E00030D003B108BD0020FFF7EAFC0120FFF770
:1014F000E7FC0220FFF7E4FC0220FFF7EDFC4FF4CD
:10150000C87000F00BF90220FFF7E6FC4FF41670EC
:1015100000F004F9294A136801331360E2E702205E
:10152000FFF7DAFC4FF4C87000F0F8F80220FFF77C
:10153000D3FC4FF4167000F0F1F8204A1368013321
:101540001360CFE70120FFF7C7FC0220FFF7C4FCC0
:10155000502000F0E3F80120FFF7BEFC0220FFF767
:10156000BBFC502000F0DAF80120FFF7B5FC0220A8
:10157000FFF7B2FC502000F0D1F80120FFF7ACFCDF
:101580000220FFF7A9FC502000F0C8F80120FFF767
:10159000A3FC0220FFF7A0FC502000F0BFF80120C0
:1015A000FFF79AFC0220FFF797FC4FF4167000F04B
:1015B000B5F8024B00221A6094E700BF2801002012
:1015C00008B5062807D8DFE800F004070A0D101355
:1015D0001600FFF775FD08BDFFF7B2FDFBE7FFF74B
:1015E000EFFDF8E7FFF72CFEF5E7FFF769FEF2E7FE
:1015F000FFF7FAFEEFE7FFF76DFFECE780B584B089
:1016000000F06EF800252C4B1D702C4B1D70FFF761
:101610001BFDFFF711FD29460120FFF775FC284649
:10162000FFF74EFC0120FFF74BFC0220FFF748FCC0
:10163000234F244E6B463C4654F8040F6168A26861
:1016400007C3A2891A803B6830687168B268FFF7E7
:101650009BFC10211C48FFF7C4F81C4C21460220BB
:10166000FEF7C2FE25601A4B636065720423237285
:101670000223A372E572257316490320FEF7B4FE18
:101680000D4B1B78012B07D00C4B1B78012BF7D18E
:101690000A4B00221A70F3E70F4B1B6823B10F4B64
:1016A0001868FFF78DFFEFE708490C4B1B68CB72FA
:1016B0000548FEF7E5FFF2E7E00100209001002079
:1016C0002C0100201C010020006400404401002087
:1016D0001EA7FF18940100202801002040010020CF
:1016E0000A4B1B680A4AA2FB03239B09013BB3F187
:1016F000807F09D2074A5360074BF02183F82310FB
:101700000023936007231360704700BF0C00002084
:10171000D34D621010E000E000ED00E0034B1860D4
:10172000024B1B68002BFBD1704700BFE401002077
:10173000034B1B681BB1024A1368013B13607047DF
:10174000E401002008B5FFF7F3FF08BD014B18685E
:10175000704700BF140000200A44914200F1FF339B
:1017600000D1704710B511F8014B914203F8014FB9
:10177000F9D110BD30B5141E05469BB0184605DAE8
:101780008B234FF0FF302B601BB030BD4FF4027342
:10179000ADF80C300CBF234604F1FF3302930593E0
:1017A0004FF6FF7300910491ADF80E3002461E9B78
:1017B0006946284600F074F8431CBCBF8B232B609D
:1017C000002CE1D00022009B1A70DDE707B50093E2
:1017D00013460A46014603480068FFF7CBFF03B0F3
:1017E0005DF804FB140000202DE9F0478E68824666
:1017F0009E420C469146984638D8B1F80CC01CF46D
:10180000906F31D062692568096902EB42026F1A54
:1018100002EBD272013355103B449D4238BF1D4646
:101820001CF4806F30D0294600F032FB064650B9D8
:101830000C234FF0FF30CAF80030A38943F0400377
:10184000A381BDE8F0873A462169FFF785FFA389A8
:1018500023F4906343F08003A38126613E44266015
:1018600046466561ED1BA560464500D946463246B1
:101870004946206800F0A6FAA36800209B1BA360DD
:1018800023681E442660DCE72A4600F05BFB064620
:101890000028E2D12169504600F0AEFAC8E7000006
:1018A0002DE9F04F1E468B899DB01B0607460D465D
:1018B00014460ED50B6963B9402100F0E9FA28609F
:1018C000286120B90C233B604FF0FF30C9E0402372
:1018D0006B610023099320238DF8293030234FF0CA
:1018E000010ADFF898918DF82A30039623461E46A8
:1018F00013F8012B0AB1252AF9D1B6EB040B0BD052
:101900005B46224629463846FFF76EFF013000F05D
:10191000A380099B5B4409933378002B00F09C80E3
:1019200000234FF0FF32CDE90523013604930793DE
:101930008DF853301A933446052214F8011B4F4892
:1019400000F032FA049BC0B9D90644BF20228DF8BA
:1019500053201A0744BF2B228DF8532032782A2AAD
:1019600013D0344600200A26079A214611F8013B7D
:10197000303B092B4BD970B914E0A0EB09000AFAEF
:1019800000F0184304902646D5E7039A111D12680B
:101990000391002A01DB079204E0524243F0020364
:1019A0000792049323782E2B0CD163782A2B33D102
:1019B000039B02341A1D1B680392002BB8BF4FF023
:1019C000FF3305932E4E03222178304600F0ECF9C8
:1019D00038B14023801B03FA00F0049B0134034319
:1019E000049314F8011B062226488DF8281000F0F5
:1019F000DBF9002838D0244B13BB039B073323F0BB
:101A0000070308330393099B434409936EE706FBDE
:101A1000023201200C46A8E700230A2619460134A9
:101A20000593204610F8012B303A092A03D9002BE0
:101A3000C8D00591C6E706FB012101230446F0E763
:101A400003AB00932A46114B04A93846AFF300803C
:101A5000B0F1FF3F8046D6D1AB895B063FF534AF8E
:101A600009981DB0BDE8F08F03AB00932A46074BE1
:101A700004A9384600F082F8EAE700BF73210008A5
:101A8000792100087D21000800000000E917000806
:101A90002DE9F04791461F468A680B690646934236
:101AA000B8BF1346C9F8003091F843200C46DDF862
:101AB000208012B10133C9F800302368990642BF73
:101AC000D9F800300233C9F80030256815F0060552
:101AD00007D104F1190AE368D9F800209B1AAB4238
:101AE00029DC94F843302268003318BF01239206A2
:101AF0002ED404F1430239463046C047013021D08C
:101B00002368E56803F00603042B18BF0025D9F805
:101B100000204FF0000908BFAD1AA368226908BF72
:101B200025EAE5759342C4BF9B1AED181A344D455A
:101B30001AD1002008E00123524639463046C047FA
:101B4000013003D14FF0FF30BDE8F0870135C2E727
:101B50003020E11881F843005A1C94F845102244C3
:101B6000023382F84310C4E7012322463946304647
:101B7000C0470130E6D009F10109D8E72DE9F0436B
:101B800006460C4601F14300097E85B06E29984651
:101B900017460C9B00F0BB8024D8632939D00AD8A3
:101BA000002900F0C480582900F0928004F1420519
:101BB00084F8421035E0642901D06929F6D12568FE
:101BC0001A6815F0800F02F104012CD01268196018
:101BD000002A03DA2D23524284F84330DFF8C0C1D3
:101BE0000A233FE0732900F0A68008D86F2921D08E
:101BF0007029DBD1226842F02002226003E07529BF
:101C000018D07829D2D17822DFF898C184F84520FD
:101C100062E01A6804F14205111D1960136884F826
:101C20004230012394E0126815F0400F196018BF8C
:101C300012B2CDE7D4F800C01A681CF0800F02F190
:101C400004051D6001D0126803E01CF0400FFAD0BB
:101C500012886F290CBF08230A23DFF844C1002132
:101C600084F843106568002DA8BF2168A560A4BF53
:101C700021F0040121600AB9002D46D00546B2FBCF
:101C8000F3F103FB112E1CF80EE0934205F801ED71
:101C900039D9082B0BD12368DA0708D52369626884
:101CA0009A42DEBF302305F8013C05F1FF35401BA9
:101CB0002061CDF800803B4603AA21463046FFF75D
:101CC000E7FE013049D14FF0FF3005B0BDE8F083A9
:101CD000DFF8CCC084F845101D68216855F8042B46
:101CE0001D600D060BD5CD0744BF41F020012160DA
:101CF0001AB9236823F0200323601023AFE74B06B3
:101D000048BF92B2EFE70A46B9E70546C1E71A684D
:101D1000D4F800C0151D61691CF0800F1D601368A8
:101D200001D0196003E01CF0400FFAD019800023A5
:101D300005462361BDE71A68111D19601568002169
:101D40006268284600F030F808B1401B60606368A4
:101D50002361002384F84330ABE723692A463946E0
:101D60003046C0470130AED023689B0713D4E068EB
:101D7000039B9842B8BF1846A7E701234A46394655
:101D80003046C04701309ED00135E368039A9B1A64
:101D9000AB42F2DCEBE7002504F11909F5E700BFDF
:101DA000842100089521000810B5C9B20244904270
:101DB000034601D1002303E01C7801308C42F6D1A8
:101DC000184610BD884210B501EB020302D98342C8
:101DD0001C4607D8421E994208D011F8014B02F860
:101DE000014FF8E783189A1A9A4200D110BD14F8EF
:101DF000011D03F8011DF7E738B50546002943D05A
:101E000051F8043C0C1F002BB8BFE41800F0D0F8C8
:101E10001E4A1368104633B9636014602846BDE853
:101E2000384000F0CBB8A3420BD921686218934226
:101E300001BF1A685B685218226063600460EDE7B6
:101E400013465A680AB1A242FAD919685818A04232
:101E50000BD120680144581882421960DED1106805
:101E60005268014419605A60D8E702D90C232B60EC
:101E7000D4E7206821188A4201BF11685268091806
:101E8000216062605C60C9E738BD00BF08010020C6
:101E9000F8B5CD1C25F0030508350C2D38BF0C25F1
:101EA000002D064601DBA94203D90C233360002034
:101EB000F8BD00F07DF821490A6814469CB9204F0E
:101EC0003B6823B92146304600F062F83860294665
:101ED000304600F05DF8431C23D10C2330463360BC
:101EE00000F06CF8E3E723685B1B17D40B2B03D9D6
:101EF00023601C44256004E06368A2420CBF0B60B1
:101F00005360304600F05AF804F10B00231D20F016
:101F10000700C21ACCD01B1AA350C9E72246646836
:101F2000CCE7C41C24F00304A042E3D0211A3046BD
:101F300000F02EF80130DDD1CFE700BF080100200E
:101F40000C010020F8B5074614460E4621B911468B
:101F5000BDE8F840FFF79CBF22B9FFF74DFF2546CB
:101F60002846F8BD00F030F8A0420FD2214638468E
:101F7000FFF78EFF05460028F2D031462246FFF7D4
:101F8000EBFB31463846FFF737FFE9E73546E7E731
:101F900038B50023054C054608462360FEF7EAF9EC
:101FA000431C02D1236803B12B6038BD100100200F
:101FB000014800F011B800BFEC010020014800F01A
:101FC0000CB800BFEC01002051F8043C181F002B96
:101FD000BCBF0B58C018704770477047537461639B
:101FE0006B206672616D653A0A0000002052302055
:101FF0003D2020253038580A0000000020523120B2
:102000003D2020253038580A0000000020523220A0
:102010003D2020253038580A00000000205233208F
:102020003D2020253038580A00000000205231326F
:10203000203D20253038580A00000000204C522056
:102040003D2020253038580A000000002050432051
:102050003D2020253038580A0000000020505352FF
:10206000203D20253038580A000000004653522FEA
:102070004641523A0A0000002043465352203D2078
:1020800020253038580A00002048465352203D2071
:1020900020253038580A00002044465352203D2065
:1020A00020253038580A00002041465352203D2058
:1020B00020253038580A0000204D4D464152203D21
:1020C00020253038580A00002042464152203D2049
:1020D00020253038580A00004D6973630A0000005B
:1020E000204C522F4558435F52455455524E3D2087
:1020F000253038580A0000005B48617264466175FB
:102100006C745D0A000000005B4275734661756C7B
:10211000745D0A005B55736167654661756C745D3B
:102120000A00000000400000002000000010000035
:10213000000C0140000C0140000C014002060206A8
:102140000306000001000000400000000040000005
:1021500006282800010000004000000000400000A8
:1021600000060E000008014000080140000C01407C
:10217000000001232D302B2000686C4C0065666741
:1021800045464700303132333435363738394142ED
:1021900043444546003031323334353637383961BF
:0621A00062636465660045
:1021A80078563412840000200000000000F36F0607
:1021B80010A1FF1818000020000000000000000017
:1021C8000000000000000000000000000000000007
:1021D80000000000000000000000000000000000F7
:1021E80000000000000000000000000000000000E7
:1021F80000000000000000000000000000000000D7
:1022080000000000000000000000000000000000C6
:0C22180000000000000000003254769826
:0400000508000105E9
:00000001FF
